:100000000C944A000C9469000C9469000C946900EB
:100010000C9469000C9469000C9469000C941D0404
:100020000C9469000C9469000C9469000C946900AC
:100030000C9469000C9469000C9469000C94E646D9
:100040000C94E6020C9469000C9484010C9409024F
:100050000C9469000C9469000C9469000C9469007C
:100060000C9469000C9469000C9469000C9469006C
:100070000C9469000C946B020C9469000C94690058
:100080000C9469000C9469000C9469000C9469004C
:100090000C94690011241FBECFEFD0E1DEBFCDBFAD
:1000A00016E0A0E0B1E0E8EBF4EA00E00BBF02C02C
:1000B00007900D92A833B107D9F719E0A8E3B6E08D
:1000C00001C01D92A53DB107E1F70E945C040C94AC
:1000D0005A520C940000CF93DF93BC015698559868
:1000E0005E9A5D9A81E08093D80081E0653F780751
:1000F00008F041C088EE93E00E94C3516150660F42
:100100006093E20088E08093E3008FE18093E40055
:1001100040E0CDEED0E08EEE90E0AAEFB0E02FEE22
:1001200030E0542F5295507F5883FC011192E83FE4
:10013000F105E1F71C921C921C921C921C921C92DD
:100140001C921C924D3020F4F9015081506C508368
:100150004F5F4F3031F780EB8093DB008FE7809368
:10016000DF008FEF8093DE00E8EDF0E080818260B9
:10017000808381E001C080E0DF91CF910895CF932B
:10018000DF93FB0180ED8093ED008091EF00807C98
:1001900051F080EE8093ED008091EF00807C09F0BB
:1001A00046C08EE001C08DE08295807F8093ED0097
:1001B000908196959695969581818295880F807EFF
:1001C000890F8093F30080818295880F807E8093D1
:1001D000F200AFEEB0E08C918F7E8C938281882309
:1001E00029F0A0EFB0E08C9184608C93AFEEB0E08A
:1001F0009C918381892B8C938381882371F080E08B
:10020000CAEFD0E0DF01A80FB11D14969C9114979E
:1002100098838F5F93818917A8F3EFEEF0E08081D8
:100220008F73808380818064808380E001C081E05F
:10023000DF91CF910895CF93DF93FC018091380631
:10024000882309F455C01092ED008091EF00807C66
:1002500009F452C081E0CDEED0E0AFEEB0E0982FCF
:100260009295907F98839C91907C41F49091380670
:100270009150909338068D3028F036C08F5F8D30C6
:1002800071F732C0A3EFB0E08C91829586958770AC
:1002900081838091F2009C91990F990F990F82951B
:1002A00086958770890F80838091F00090E084703C
:1002B0009070959587959595879582832091EF000D
:1002C0002F702383222349F0349680E0AAEFB0E018
:1002D0009C9191938F5F8217D9F7EFEEF0E08081C8
:1002E000806C808381E005C01092380680E001C0F8
:1002F00080E0DF91CF9108958091380681508093FE
:100300003806C0CF80E008951F920F920FB60F926B
:100310000BB60F9211242F933F934F936F937F93BC
:100320008F939F93AF93BF93CF93DF93EF93FF93FD
:100330004091ED008091DA0088230CF045C0809157
:10034000E100807641F080ED8093ED008091EE0039
:10035000882379F135C08091DA008823ACF520E05C
:100360006DEE70E0EEEEF0E0AFEEB0E08AED90E022
:10037000322F3295307FEB013883308135FF0AC050
:1003800010823C913F733C93309138063F5F30932D
:10039000380607C030813F7D21F010823C91306CDF
:1003A0003C932F5F2D3081F0EC013881332304F32F
:1003B0000BC080EE8093ED008091EE00882321F049
:1003C0001092EE001092EF004093ED008091DA0061
:1003D00086FF06C0EAEDF0E080818064808305C07E
:1003E000EAEDF0E080818F618083FF91EF91DF91F2
:1003F000CF91BF91AF919F918F917F916F914F91CD
:100400003F912F910F900BBE0F900FBE0F901F903A
:1004100018951F920F920FB60F920BB60F921124E0
:100420008F93EF93FF93EAEDF0E080818062808309
:10043000FF91EF918F910F900BBE0F900FBE0F9019
:100440001F90189510929B0010929A0083E0809361
:10045000910084E0809371000895AB01BC01EAE94A
:10046000F0E080819181840F951F918380830895AE
:100470000F931F93009194001091950020E030E0BD
:100480008091000190910101A0910201B0910301BE
:1004900080179107A207B30728F4081B190B2A0B32
:1004A0003B0B12C0081719072A073B0748F4AC0199
:1004B000BD01401B510B620B730B8A019B0104C0F1
:1004C0000FEF1FEF20E030E0602F712F822F932F6E
:1004D0001F910F9108951F920F920FB60F920BB6B6
:1004E0000F9211242F933F934F935F936F937F93BA
:1004F0008F939F93AF93BF93EF93FF93809194005B
:1005000090919500A0E0B0E08093000190930101EC
:10051000A0930201B09303010E948C45FF91EF91DB
:10052000BF91AF919F918F917F916F915F914F910B
:100530003F912F910F900BBE0F900FBE0F901F9009
:10054000189584E08093D0098BE08093C309809153
:10055000C3098093A10784E60E94CE461092AE099B
:100560001092AD0980EB94E00E948D4680E00E94DD
:10057000CE468091AD099091AE098233910530F459
:1005800081E0809348068093AA09FFCF0895F894EC
:100590008FEF82B99FE091B985B984B988B917B84E
:1005A0008EB99DB981BB90BB15BE1092690080E2E7
:1005B00080936A0080E48DBB84B58B6084BD82E04B
:1005C00080936E0089EF87BD789408951F920F92F3
:1005D0000FB60F920BB60F9211242F933F934F93A8
:1005E0005F936F937F938F939F93AF93BF93EF939B
:1005F000FF9381E080934E068091490690914A06D0
:10060000019690934A06809349068091AB09909198
:10061000AC0901969093AC098093AB098091D00905
:100620009091B109891709F43FC0823039F4349BA5
:1006300005C080E00E94CE461092C0098091AF09AB
:1006400090E080589E4F90933B0680933A0610921C
:100650003C0688E080933D0680919C0780933E068F
:1006600080919D0780933F0680919E07809340066E
:1006700080919F07809341068091A0078093420656
:100680008091A107809343068091D009809344060E
:100690008091A307809345068091A7079091A807B2
:1006A0006AE376E00E94BF008091D0098093B1098F
:1006B00080E48DBB8091490690914A0623E0883EF4
:1006C000920708F49DC080914C0690914D0623E05E
:1006D0008335920738F088E081BB10924D06109266
:1006E0004C0608C080914C0690914D069093C2092B
:1006F0008093C10910924A061092490610924D0645
:1007000010924C0681E0809347069091CD0980912C
:10071000CE0990939C0780939D078091C809909182
:10072000C90980939E078091C8099091C909909347
:100730009F078091D009823071F0833018F48130A6
:10074000A9F405C0833059F0843081F40CC081E0F5
:100750008093A2070BC082E08093A20707C083E0CA
:100760008093A20703C084E08093A2078091E206F1
:100770009091E3068093A0078091E2069091E306B2
:100780009093A10766B140B120B180B170E0607173
:10079000707075956795759567957595679550E037
:1007A0004074507055954795559547955595479583
:1007B00055954795462B8071482B30E0207230705C
:1007C000C9019595879595958795842B80958E7110
:1007D0008093CA092CB19091C7098091AA093091E0
:1007E000CA09221F2227221F232B9295990F907E40
:1007F000922B8295880F880F807C892B8093A3078A
:1008000080914806882319F08FE081BB03C0809156
:10081000390681BBFF91EF91BF91AF919F918F916D
:100820007F916F915F914F913F912F910F900BBEF0
:100830000F900FBE0F901F9018951F920F920FB63A
:100840000F9211248F939F93AF93BF9366992AC001
:100850008DE1669927C08150E1F780914C06909117
:100860004D06019690934D0680934C068091AD09FC
:100870009091AE0901969093AE098093AD09809155
:10088000DA069091DB06A091DC06B091DD060196B8
:10089000A11DB11D8093DA069093DB06A093DC06C0
:1008A000B093DD06EE98BF91AF919F918F910F901D
:1008B0000FBE0F901F901895CF93DF9300D000D0FC
:1008C000CDB7DEB71A821092C0090E94C7020E94FB
:1008D000B84680E00E94CE460E9443508EEF9FE0D3
:1008E0000E942A528093A909863051F0883041F045
:1008F0008EEF9FE068E00E94385288E08093A9095B
:100900008091A9098093CF098091CD099091CE095A
:100910000A9722E08336920730F08CED90E09093B6
:10092000CE098093CD09198289818F3FB9F009EAF8
:1009300017E0E980898190E0880F991F0E94325268
:10094000EE2DF0E0EE0FFF1FE00FF11F918380838B
:1009500089818F5F898389818F3F59F785E08983FA
:1009600089EA97E007C029812F5F29832981293CE3
:1009700008F0FFCFE981F0E0EE0FFF1FE80FF91F4D
:10098000208131812436310570F38981853011F061
:10099000659904C014BC0E94DD46FFCF8981809315
:1009A000B2098091CD099091CE099093A5078093CB
:1009B000A40786B180958F70875F8093AF0984EF1D
:1009C00091E00E946B000E94220201E611E0C80142
:1009D0006091AF090E94A941C80160E00E94F74000
:1009E000C80165E00E94F7400E94A10282E0809366
:1009F000B1098093D00981E08093C3090F2EFAE3F7
:100A0000AF2EF6E0BF2EF02D480104ED19E00F2EB9
:100A1000FDECEF2EF9E0FF2EF02D81ED99E002962E
:100A20009C838B830F2EFFECCF2EF9E0DF2EF02D71
:100A300077247394C5010E941B01882339F098E044
:100A400090933906C401B5010E94D73FF801808117
:100A5000843091F0853020F4813008F444C006C021
:100A60008031C9F0853509F03EC028C0E0EDF9E0DD
:100A70008083F801108239C01092DA061092DB06EA
:100A80001092DC061092DD061092E3061092E20648
:100A9000F80110822AC0E1EDF9E080819181F7012F
:100AA00091838083EB81FC818081863011F08830D6
:100AB00011F4F6018083F801108217C08FEF9FE0D8
:100AC0006FEF0E94385284E690E00E948D4628E045
:100AD00088E190E00FB6F894A895809360000FBE6F
:100AE00020936000FFCFF801108280914706882391
:100AF00031F070923906109247060E94CD4A8091DB
:100B0000490690914A066AE070E00E94C35100973E
:100B1000A9F4F2E0F09339060E948F4CF70180812E
:100B200091812091A4073091A5078217930731F096
:100B3000709246069093A5078093A40780914E0675
:100B4000882309F477CFF4E0F093390610924E062B
:100B5000F60160818091A909681731F06093A909B5
:100B60008EEF9FE00E943852C4010E94D23F982F1E
:100B7000E0EDF9E08081823009F445C0833009F46A
:100B80004EC0813009F056CF8091C009882351F0C2
:100B90008091C009882309F44DCF809146068823AF
:100BA00009F448CF953009F045CF679943CFF60156
:100BB0002081263019F0283009F03CCFF7018081E0
:100BC0009181F2E08D369F0708F034CF8A3091058D
:100BD00008F430CF263029F421E08D3C920708F04C
:100BE00029CF0E94AD4790E09093BD098093BC0946
:100BF0008091BC099091BD090E94CE467092C009B7
:100C00001092460617CF349B15CF80E00E94CE4647
:100C10001092C0091092C7091092AA090BCF80E068
:100C20000E94CE461092C00905CFEF92FF921F930B
:100C3000CF93DF9300D000D000D0CDB7DEB77C01DA
:100C4000162FFC01E656FE4F0190F081E02D82E266
:100C50009FE1BE016F5F7F4FAE014B5F5F4F099514
:100C6000F701E256FE4F9183808349815A816B815F
:100C70007C81411551056105710591F5FC012281C9
:100C8000211780F1212F30E0220F331F220F331F55
:100C9000220F331FA081B181A20FB31F12964D9175
:100CA0005D916D917C911597411551056105710517
:100CB000D9F0F701E056FE4F16968D919C9117974B
:100CC000049691838083F701EE55FE4F10821182C6
:100CD00012821382F701EA55FE4F108281E005C0AF
:100CE00080E003C080E001C080E026960FB6F89453
:100CF000DEBF0FBECDBFDF91CF911F91FF90EF9070
:100D00000895CF92DF92EF92FF920F931F93CF93AC
:100D1000DF938C016B01FC01E256FE4F0190F081E4
:100D2000E02D309709F48CC08281841708F48AC0C2
:100D3000842F90E0880F991F880F991F880F991FA3
:100D4000A081B181A80FB91F1696ED91FC9117975C
:100D5000C081D181488159816A817B81F801E05647
:100D6000FE4FE080F18012968D919C9113978C0F2D
:100D70009D1F9701295F3F4F2817390708F064C06E
:100D8000F801EE55FE4F80819181A281B3818417D5
:100D90009507A607B70708F059C0D7018D919C9118
:100DA000F60191838083E801C056DE4FE881F98126
:100DB000CF010296998388838281D60112968C9303
:100DC000CF0103969983888383819481A581B6811D
:100DD000F60183839483A583B683888199810496E1
:100DE0009983888390878783F801E555FE4F918327
:100DF0008083F60183819481A581B681F801E9554C
:100E0000FE4F80839183A283B38328813981D601E9
:100E100013968D919C911497820F931F99838883C9
:100E2000F801EE55FE4F80819181A281B381019638
:100E3000A11DB11D80839183A283B38381E007C08C
:100E400080E005C080E003C080E001C080E0DF9169
:100E5000CF911F910F91FF90EF90DF90CF90089569
:100E6000CF92EF92FF920F931F93CF93DF93CDB763
:100E7000DEB729970FB6F894DEBF0FBECDBF7C0159
:100E8000162FBE016F5F7F4F412F0E94810688237E
:100E900089F049815A81C701612F2B8100E00F2E13
:100EA000FAEEEF2EF7E0FF2EF02DCC240E94B93D94
:100EB00081E001C080E029960FB6F894DEBF0FBE36
:100EC000CDBFDF91CF911F910F91FF90EF90CF9009
:100ED00008951F93CF93DF93EC01162FFC01EA5581
:100EE000FE4F80818823F1F4CE010E9415068823ED
:100EF00031F0CE01612F0E943007882369F4CE01C2
:100F0000612F41E00E94520FC10FD11DC158DF4F28
:100F100085E0888381E007C0CA55DE4F81E0888381
:100F200082E001C080E0DF91CF911F9108958F9200
:100F30009F92AF92BF92CF92DF92EF92FF920F9368
:100F40001F93CF93DF93CDB7DEB729970FB6F894F1
:100F5000DEBF0FBECDBF5C01D62EBE016F5F7F4FDF
:100F60004D2D0E948106882309F100D049815A81C4
:100F7000EC80FF2400E010E0E885F985ADB7BEB74E
:100F800011961C92119712961C92C5016D2D2B8102
:100F9000CC245F010F2EFAEE8F2EF7E09F2EF02D5E
:100FA0000E94C83B0F900F9081E001C080E029961D
:100FB0000FB6F894DEBF0FBECDBFDF91CF911F916A
:100FC0000F91FF90EF90DF90CF90BF90AF909F90E8
:100FD0008F900895AF92BF92CF92DF92FF920F93BE
:100FE0001F93CF93DF93CDB7DEB72C970FB6F8944E
:100FF000DEBF0FBECDBF6C01F62E19821A821B8296
:101000001C8284E090E0A0E0B0E089879A87AB87FB
:10101000BC87F601EA55FE4F8081813009F090C00F
:10102000C601AE014B5F5F4F9E01275F3F4F8E01B0
:101030000F5F1F4F0E94853E813009F0D4C0F6013A
:10104000E955FE4F408151816281738189859A857E
:10105000AB85BC85481759076A077B0709F05CC058
:1010600013C045E050E04C0F5D1F480F591FF501BC
:1010700020813181820F931FFA012081FC01808140
:10108000281761F0102F0AC011E00F2EFBEAAF2ED7
:10109000F1E0BF2EF02DAC0CBD1C00E049855A8557
:1010A0006B857C85DB01CA010197A109B10989879C
:1010B0009A87AB87BC87411551056105710589F693
:1010C000112351F1C6016F2D0E943007882309F0CA
:1010D00091C0C6016F2D41E00E94520FF601EF0D45
:1010E000F11DE158FF4F85E0808310E0F601E10F2C
:1010F000F11DE158FF4F8081882339F4C601612F2B
:101100000E946907823009F475C01F5F7AF7C60133
:1011100065E00E94F7406EC0C6016F2D0E94150663
:10112000882309F460C0C6016F2D0E9497078823A9
:1011300009F459C0F601EA55FE4F82E080835AC097
:101140008230B1F5C601AE014F5F5F4F0E94873F0D
:10115000813009F048C0C6016F2D0E94970788238F
:1011600009F048C0F601EA55FE4F1082C6016F2D06
:1011700041E00E94520FF601EF0DF11DE158FF4FC3
:1011800085E0808310E0F601E10FF11DE158FF4F8B
:101190008081882331F4C601612F0E946907823063
:1011A00049F11F5F82F7C60165E00E94F74022C047
:1011B000833001F5C601AE014F5F5F4F0E94873F4C
:1011C000813089F4C6016F2D41E80E94520FF6016B
:1011D000EA55FE4F1082F601EF0DF11DE158FF4F69
:1011E0008FE0808307C0F601EF0DF11DE158FF4F3E
:1011F0008FE080832C960FB6F894DEBF0FBECDBF74
:10120000DF91CF911F910F91FF90DF90CF90BF9012
:10121000AF9008958F929F92AF92BF92CF92EF922C
:10122000FF920F931F93CF93DF9300D000D0CDB7E1
:10123000DEB7262F43E751E666E775E649835A8312
:101240006B837C8300D0EDB7FEB711821282622FD0
:1012500040E150E121E0EE24FF2487016894E2F8A8
:10126000CC245E010894A11CB11C0F2EFAEE8F2E27
:10127000F7E09F2EF02D0E94C83B0F900F900F902B
:101280000F900F900F90DF91CF911F910F91FF90D2
:10129000EF90CF90BF90AF909F908F900895CF9395
:1012A000DF93FC01E155FE4F0190F081E02D20819C
:1012B000222309F5FC01E255FE4F20812223D9F0BB
:1012C00040E0DC01AF54BE4FFC01E255FE4F842FDD
:1012D00090E0880F991F880F991F2D913C911197CD
:1012E000820F931FEC01188219821A821B824F5FB2
:1012F0008081481760F360E070E0CB01DF91CF910F
:101300000895CF93DF93EC0163E070E140E02FE4B8
:1013100039E00E94BE12C155DE4FE881F98110828A
:10132000DF91CF9108950895EF92FF920F93CF939D
:10133000DF93CDB7DEB72C970FB6F894DEBF0FBEA4
:10134000CDBF7C01FC01EB54FE4F0190F081E02DFC
:10135000808191819A8389831B826D837E834F83F1
:101360002115310539F4188619861A861B861C86C4
:1013700005E00BC0063008F005E0CE010896622FAC
:10138000732F402F50E00E9421520D5F0C83F70114
:10139000E856FE4F80819181BE016F5F7F4F0E94B2
:1013A000BF002C960FB6F894DEBF0FBECDBFDF9105
:1013B000CF910F91FF90EF900895AF92BF92CF928F
:1013C000DF92EF92FF920F931F93CF93DF938C01E5
:1013D0007B01A42F6901FC01E954FE4F80819181BA
:1013E0008617970769F0F801E554FE4F21E030E0D9
:1013F000422FB901808191818E159F05E9F403C0C8
:1014000060E070E040E0FB01EE0FFF1FEE0FFF1FFA
:10141000E00FF11FE654FE4F8081882309F0C5C01C
:10142000FB01EE0FFF1FEE0FFF1FE00FF11FE65451
:10143000FE4F81E0808307C04F5F2F5F3F4F3496A0
:1014400028303105A9F64830B9F4F801E654FE4FCA
:101450008081882309F4B9C0F801E254FE4F41E0CD
:101460008081882331F04F5F34964830C9F781E09E
:10147000A1C0483009F49BC050E0440F551F440FF1
:10148000551F400F511FFA01E954FE4FF182E082CF
:10149000FA01E754FE4FA08346545E4F81E0EA0113
:1014A0008883F801E355FE4F8083D801A654BE4FD0
:1014B00090E080E02C91213021F4FD0131972081D2
:1014C000922B8F5F14968830A9F7F801ED54FE4FE8
:1014D0000190F081E02D9083F801E255FE4F2081CC
:1014E000215041F10F2EF1EBAF2EF1E0BF2EF02D88
:1014F000A00EB11EF501A081B181E22FF0E0CF0175
:101500000197880F991F880F991F8A0F9B1FEC0165
:10151000488159816A817B81CF01880F991F880F8B
:10152000991F8A0F9B1FFC01408351836283738341
:10153000215001F7F801EF54FE4F0190F081E02DAA
:10154000C601A0E0B0E0DC0199278827A70160E090
:1015500070E0842B952BA62BB72B80839183A283DD
:10156000B383F801E155FE4F0190F081E02D8081B9
:10157000D801A255BE4F9C91891710F48F5F8083CC
:10158000F801EE59FF4F8081882399F0F801ED545E
:10159000FE4F0190F081E02DC801B701408120E0AD
:1015A00030E000E00E94940905C080E003C081E0C3
:1015B00001C081E0DF91CF911F910F91FF90EF90DB
:1015C000DF90CF90BF90AF90089540E055CF0F933C
:1015D0001F93CF93DF93EC01FC01E954FE4F808110
:1015E00091818617970789F0FE01E554FE4F21E0AF
:1015F000808191818617970729F02F5F34962830D4
:10160000B9F749C0283011F446C020E0822F90E09D
:10161000FC01EE0FFF1FEE0FFF1FEC0FFD1FE65446
:10162000FE4F20812130B9F5FC01EE0FFF1FEE0FB8
:10163000FF1FEC0FFD1FE654FE4F1082FE01E65423
:10164000FE4F20E010E080E031E09081913029F4FD
:10165000DF0111979C91192B232F8F5F34968830CF
:10166000A1F7222399F4FE01E355FE4F1082FE01FB
:10167000EE59FF4F8081882349F0CE0160E070E091
:1016800040E020E030E000E00E949409CD54DE4FBD
:10169000E881F9811083DF91CF911F910F91089517
:1016A0009C01DB0113968C9113978830B1F4F901FA
:1016B000E952FE4F6C916F7715965C91159740E05B
:1016C00014968C91149790E0482B592B0190F0813F
:1016D000E02DC90116962C91099508950895CF9291
:1016E000DF92EF92FF92BA01660F771F660F771FA6
:1016F000FC01EB58FF4F20813181F901E60FF71F04
:10170000C2809A01220F331FFC01E958FF4F01905C
:10171000F081E02DE20FF31F2FEF3FEF31832083A5
:10172000FC01EC0DF11DE158FF4F21E02083FC018D
:10173000E358FF4F0190F081E02D6C2D0995FF904B
:10174000EF90DF90CF900895CF92DF92EF92FF92CB
:101750000F931F93CF93DF938C01FC01EB5FFE4F40
:101760000190F081E02D80819181009709F442C0C1
:10177000C0E00F2EF3E0CF2EF1E0DF2EF02DC00EF3
:10178000D11ED1E0EC2EFF24F801EE0DFF1DE15833
:10179000FF4F80818F3051F1D801ED91FC9111976D
:1017A00080818C1719F1F801EE0DFF1DE75FFE4FE8
:1017B0008081882379F4D601ED91FC9111973097BF
:1017C00019F0C8016C2F0995F801EE0DFF1DE158C5
:1017D000FF4FD083F801EE0DFF1DE75FFE4F8081C4
:1017E00081508083C8016C2F0E94760FCF5FC03874
:1017F00049F609C0E801C150DF4F888199810E94F4
:101800006A4599838883DF91CF911F910F91FF9053
:10181000EF90DF90CF9008950F931F93CF93DF93B6
:10182000CDB7DEB72C970FB6F894DEBF0FBECDBF95
:10183000FC01E758FF4F0190F081E02D20813181BC
:1018400021153105E1F0DC01ED91FC91208130E0C2
:101850002050394F3A83298321E02C831B82FC01DD
:10186000E15AFF4F20812D8388569E4FFC018081D5
:101870009181BE016F5F7F4F0E94BF000BC08C0142
:1018800005581F4FD8018D919C910E946A45F8011F
:10189000918380832C960FB6F894DEBF0FBECDBF28
:1018A000DF91CF911F910F91089566233CF0860F31
:1018B000911DFC01E158FF4F808108958FE008954C
:1018C0002F923F924F925F926F927F928F929F9250
:1018D000AF92BF92CF92DF92EF92FF920F931F933E
:1018E000CF93DF93CDB7DEB764970FB6F894DEBF22
:1018F0000FBECDBF1C01FB0180810F2EFFE78F2E95
:10190000F02D88228281813091F5D101ED91FC91F9
:1019100011978081881509F0E1C090E08050994FBF
:101920009A83898381E08C831B82F101E15AFF4F06
:1019300080818D83F101E956FE4F9081992339F022
:1019400080688D83F101E956FE4F108205C0F101D8
:10195000E956FE4F81E08083F101E856FE4F808119
:101960009181BE016F5F7F4F0E94BF00B7C014819D
:101970001F77E82CFF24F101E95FFE4F0190F08111
:10198000E02D2081C1018E0D9F1DFC01E75FFE4F00
:10199000208381589F4FFC018081811781F0F101E4
:1019A000EB56FE4F0190F081E02DC101682D412FD3
:1019B0000995F101EE0DFF1DE158FF4F1083F10174
:1019C000EE0DFF1DE158FF4F8081882349F4F1019E
:1019D000ED56FE4F0190F081E02DC101682D099573
:1019E000F101EE0DFF1DE158FF4F80818F3009F4AA
:1019F00075C0F101ED58FF4F0190F081E02D80811D
:101A0000882309F46BC099240F2EF5E76F2E7724F5
:101A1000F02D620C731C910129583F4F3E872D8792
:101A20000F2EF3E74F2E5524F02D420C531C292D79
:101A300030E0C901880F991F880F991FD301ED91DC
:101A4000FC911197E80FF91FC080D180E280F380EC
:101A50008E14D9F58901000F111FED85FE85808157
:101A60009181800F911FDC018D919C910E946A45AC
:101A7000ED85FE85808191819C01200F311F388B7F
:101A80002F87892D90E0A0E0B0E0898B9A8BAB8BFB
:101A9000BC8BC701B601807090702AEF30E040E047
:101AA00050E00E94A4517B018C01C10149895A89EF
:101AB0006B897C892FE63BE0AA24BB2465010E9448
:101AC0007744AF85B8898D939C939394D201ED911F
:101AD000FC9111978081981608F4A9CF64960FB6EF
:101AE000F894DEBF0FBECDBFDF91CF911F910F9154
:101AF000FF90EF90DF90CF90BF90AF909F908F902E
:101B00007F906F905F904F903F902F9008952F920D
:101B10003F924F925F926F927F928F929F92AF927D
:101B2000BF92CF92DF92EF92FF920F931F93CF93CA
:101B3000DF9300D000D00F92CDB7DEB71C0167E174
:101B400070E140E02EE03FE00E94BE12F101E95654
:101B5000FE4F1082F101ED58FF4F0190F081E02D12
:101B60008081882309F45FC01D820F2EF5E76F2E58
:101B70007724F02D620C731CC10189589F4F9C8300
:101B80008B830F2EF3E74F2E5524F02D420C531C60
:101B90009D81292F30E0C901880F991F880F991F57
:101BA000D301ED91FC911197E80FF91F808191818C
:101BB000AC0160E070E0411551056105710541F12E
:101BC000220F331FEB81FC8180819181DC01A20F08
:101BD000B31FBA83A983BD818B2E9924AA24BB2469
:101BE000CB01BA012AEF30E040E050E00E94A4515E
:101BF0007B018C01C101B501A4012FE63BE0AA24C1
:101C0000BB2465010E947744E981FA819183808336
:101C1000FD81FF5FFD83D201ED91FC918081BD814B
:101C2000B81708F4B5CFF101E758FF4F0190F081E4
:101C3000E02D6081718161157105C9F080E090E04F
:101C40002AEF30E040E050E00E94A4515B016C01BB
:101C5000C10140E050E0BA012CE03CE08601750192
:101C60000E947744F101E558FF4F918380830F90E4
:101C70000F900F900F900F90DF91CF911F910F91C8
:101C8000FF90EF90DF90CF90BF90AF909F908F909C
:101C90007F906F905F904F903F902F900895AF92FC
:101CA000BF92CF92DF92EF92FF920F931F93CF9349
:101CB000DF93EC010AE21FE06CE070E140E0980184
:101CC0000E94BE12CE016DE070E140E098010E94DA
:101CD000BE12FE01EB5FFE4F0190F081E02D6081AE
:101CE00071816115710509F442C0FE01E95FFE4F83
:101CF0000190F081E02D80818823C9F180E090E09F
:101D00002AEF30E040E050E00E94A4515B016C01FA
:101D1000CE0140E050E0BA0124EA3BE086017501C3
:101D20000E947744FE01E150FF4F9183808320E0C1
:101D3000DE01A95FBE4F822F90E0FE01E80FF91F80
:101D4000E158FF4F30813F3079F0E881F9813081EF
:101D5000321751F0ED91FC91119730818C0F9D1F3E
:101D6000FC01E75FFE4F30832F5F203821F7DF91C2
:101D7000CF911F910F91FF90EF90DF90CF90BF9088
:101D8000AF900895AF92BF92CF92DF92EF92FF9201
:101D90001F93CF93DF935C01FC01ED58FF4F01903F
:101DA000F081E02D8081882331F110E00F2EF7E7DC
:101DB000EF2EFF24F02DEA0CFB1C0F2EF3E7CF2EA5
:101DC000DD24F02DCA0CDB1C812F90E0880F991FB9
:101DD000D701CD91DC91C80FD91F888199810E94CC
:101DE0006A45998388831F5FD601ED91FC91119715
:101DF0008081181748F3E501C558DF4F8881998124
:101E00000E946A4599838883DF91CF911F91FF904B
:101E1000EF90DF90CF90BF90AF900895CF93DF9376
:101E2000EC010E94C20ECE010E94870D60E070E0BE
:101E3000CB01DF91CF910895CF93DF93EC01C15097
:101E4000DF4F888199810E946A4599838883DF9159
:101E5000CF910895CF93DF93EC010E941C0FCE0128
:101E60000E944F0E60E070E0CB01DF91CF910895AA
:101E7000CF93DF93EC010E94870DCE010E944F0E9D
:101E8000DF91CF910895CF93DF93EC010E94C20EB2
:101E9000CE010E941C0FDF91CF91089508950895FF
:101EA00008950895CF93DF93CDB7DEB72C970FB683
:101EB000F894DEBF0FBECDBF1A8219821B8222E0CA
:101EC0002C834D836E83FC01E856FE4F8081918107
:101ED000BE016F5F7F4F0E94BF002C960FB6F89433
:101EE000DEBF0FBECDBFDF91CF910895CF93DF93BB
:101EF000CDB7DEB72C970FB6F894DEBF0FBECDBFBF
:101F000070E077607A83698321E02B831C82FC0177
:101F1000E856FE4F80819181BE016F5F7F4F0E9426
:101F2000BF002C960FB6F894DEBF0FBECDBFDF9179
:101F3000CF910895FC01E60FF11DE158FF4F2FE00E
:101F40002083662359F420E03FE0FC01E20FF11DFD
:101F5000E158FF4F30832F5F2038B9F70E94760F8A
:101F600008951F93CF93DF93EC01FB01DC01A15A8D
:101F7000BF4F8C918F3729F0853019F0843009F0EC
:101F80005EC09581992331F0A881B9812C91921777
:101F900009F055C09481903809F1913830F49130AE
:101FA00051F0923009F04BC010C09138F9F09238DE
:101FB00009F045C02AC08F3719F0843009F03FC0BE
:101FC000CE0165E00E94F7403AC08F3711F08530AE
:101FD000B1F5CE0164E00E94F74031C084508230F8
:101FE00070F5CE016FE70E94F74029C0FE01E1596C
:101FF000FF4F0190F081E02D309711F0CE0109954F
:10200000CE0160E00E94F7401AC0CE010E94A341B9
:10201000182FFE01EF58FF4F0190F081E02D30970F
:1020200011F0CE010995E881F9818FEF8083CE010F
:10203000612F0E94A941CE0160E00E94F740DF912C
:10204000CF911F910895CF93DF93CDB7DEB72C9733
:102050000FB6F894DEBF0FBECDBFDC01ED91FC9151
:10206000208130E037603A8329831B8221E02C8372
:102070001D8288569E4FFC0180819181BE016F5F59
:102080007F4F0E94BF002C960FB6F894DEBF0FBEA4
:10209000CDBFDF91CF91089580E008954F925F9278
:1020A0006F927F928F929F92AF92BF92CF92DF9268
:1020B000EF92FF920F931F93CF93DF9300D000D046
:1020C00000D0CDB7DEB7D42E29013801FC01E65689
:1020D000FE4F0190F081E02DCB01BE016F5F7F4F7D
:1020E000AE014B5F5F4F09958C0189809A80AB8070
:1020F000BC8081149104A104B10409F0C3C0DC01C7
:1021000012968C911297D81608F0A1C0CC2089F0B5
:102110002D2D30E0220F331F220F331F220F331FCC
:102120008D919C911197820F931FFC01808180FDFE
:1021300099C04114510409F4A0C08D2D90E09C0178
:10214000220F331F220F331F220F331FD8018D910F
:102150009C916C01C20ED31EF60182819381A481F1
:10216000B581F3014081518162817381481759071C
:102170006A077B0778F480839183A283B3830F2E51
:10218000F5E08F2EF0E09F2EF4E0AF2EF5E0BF2EAD
:10219000F02D78C0D60111964C91F7014083D801FB
:1021A0008D919C911197FC01E20FF31FC280D380A7
:1021B000E480F580493069F066817781842D952D22
:1021C000A6010E942152F301C082D182E282F382F1
:1021D00059C066817781F30180819181A281B381A9
:1021E0000097A105B10511F4D701C601FB012081BB
:1021F0002223A9F0AB01480F591F6417750788F413
:10220000CB010196D2012D932D013196DC012D9148
:10221000CD01222339F0E417F507A1F703C0FB0134
:1022200001C0FB01CF01861B970BAC01662757FD50
:102230006095762FD3014D935D936D937C931397A7
:102240004C155D056E057F05E8F410821BC00F2E4E
:10225000F1E18F2EF0E09F2EF9E0AF2EF6E0BF2ED9
:10226000F02D10C00F2EF1E08F2EF0E09F2EF1E048
:10227000AF2EF6E0BF2EF02D05C08824992454011E
:102280006894B3F8682D792D8A2D9B2D26960FB66C
:10229000F894DEBF0FBECDBFDF91CF911F910F919C
:1022A000FF90EF90DF90CF90BF90AF909F908F9076
:1022B0007F906F905F904F9008952F923F924F9232
:1022C0005F926F927F928F929F92AF92BF92CF92C6
:1022D000DF92EF92FF920F931F93CF93DF93CDB7CF
:1022E000DEB72E970FB6F894DEBF0FBECDBF2C0120
:1022F0001B01F42ED22EC32E3801FC01E656FE4FF0
:102300000190F081E02DCB01BE016F5F7F4FAE01E8
:102310004B5F5F4F09958C0189809A80AB80BC80B0
:1023200081149104A104B10409F0FFC0DC011296EC
:102330008C911297F81608F0E0C0EE2091F02F2D46
:1023400030E0220F331F220F331F220F331F8D91D6
:102350009C911197820F931FFC018081823009F4B8
:10236000D7C02F2D30E03E872D87220F331F220F3D
:10237000331F220F331F3C872B87D801ED91FC912F
:10238000E20FF31FE18022813381448155812F8345
:10239000388749875A87F30180819181A281B3816F
:1023A0000097A105B10579F0281739074A075B079F
:1023B00051F0F9E0EF1609F08CC082179307A407DB
:1023C000B50708F086C0D2015296ED91FC91539763
:1023D0008E2D6D2D7C2D09954B015C0169837A83CF
:1023E0008B839C83611571058105910509F09DC062
:1023F000D801ED91FC912B853C85E20FF31FD301B1
:102400004D915C91868197816D2D7C2D0E9421528A
:10241000B9E0EB16F1F4F3014081518162817381DF
:102420008F819885A985BA85481759076A077B0760
:1024300080F4D8018D919C91EB85FC858E0F9F1FB8
:10244000DC0116968D919C911797840F951FFC01C6
:1024500010822F81388549855A85D3012D933D936C
:102460004D935C9313972D813E8121153105D9F051
:102470008D859E85880F991F820F931FDC01ED913A
:10248000FC911197309779F0C201B8014F2D099551
:10249000DC01CB0189839A83AB83BC830097A105C0
:1024A000B10509F040C0D801ED91FC9111972B8541
:1024B0003C85E20FF31F808182FF37C0F201E456B2
:1024C000FE4F0190F081E02DC201B1014F2D099521
:1024D0002CC08F819885A985BA85F301808391836B
:1024E000A283B3830F2EF0E18F2EF0E09F2EF7E052
:1024F000AF2EF6E0BF2EF02D18C00F2EF1E18F2E7B
:10250000F0E09F2EF9E0AF2EF6E0BF2EF02D0DC0CB
:102510000F2EF2E08F2EF0E09F2EF1E0AF2EF6E0CE
:10252000BF2EF02D02C04C015D01682D792D8A2D42
:102530009B2D2E960FB6F894DEBF0FBECDBFDF9158
:10254000CF911F910F91FF90EF90DF90CF90BF90B0
:10255000AF909F908F907F906F905F904F903F9043
:102560002F900895DB01BA01A901FC01E656FE4F48
:102570000190F081E02DCD0109950895EF92FF9231
:102580001F93CF93DF9300D000D000D0CDB7DEB73C
:10259000142F7901AE014F5F5F4F9E012B5F3F4FBC
:1025A0000E94B21249815A816B817C81411551058B
:1025B0006105710591F42D813E812115310569F088
:1025C000FC018281181748F4812F90E0880F991F31
:1025D000280F391FF901F182E08269817A818B81AC
:1025E0009C8126960FB6F894DEBF0FBECDBFDF915B
:1025F000CF911F91FF90EF9008950895DA01A29571
:10260000B295B07FBA27A07FBA274A0F5B1FFC01A3
:10261000A481B581A40FB51F1596E22FF32F4CE0CE
:1026200001900D924150E1F788569E4FFC01808148
:102630009181622F732F0E94BF000895CF93DF9383
:10264000CDB7DEB72C970FB6F894DEBF0FBECDBF67
:10265000DC011A96ED91FC911B97848195811C9663
:10266000ED91FC911D9724813581FD01EB59FF4FC0
:102670004081442389F1009789F144E16030740777
:1026800078F180509441860F971F2817390750F131
:10269000FC01EE0FFF1FEE0FFF1F8E0F9F1F129604
:1026A000ED91FC911397E80FF91F0190F081E02D57
:1026B0000684F785E02D808191819A83898381E06A
:1026C0008B831C82A856BE4F8D919C91BE016F5F7B
:1026D0007F4F0E94BF0007C080E005C08FEF03C09E
:1026E0008FEF01C08FEF2C960FB6F894DEBF0FBEB0
:1026F000CDBFDF91CF9108954F925F926F927F92FD
:102700008F929F92AF92BF92CF92DF92EF92FF9201
:102710000F931F93CF93DF93E82F5B01642FD22E8B
:10272000E8013E2D882309F46BC0FF246894F3F878
:102730000FEF10E088249924689483F8F0E0662471
:102740007724639444244A94542C232F261B121676
:1027500064F4D5018C9190E002C0880F991F2A95EE
:10276000E2F7782F2F2D231B13C0D5014C9150E099
:10277000822F992787FD9095909581959F4FDA013B
:1027800002C0B595A7958A95E2F77A2F2F2D261BC3
:10279000E21708F42E2F432F50E0CA01820F911D3B
:1027A000D80102C0AA0FBB1F8A95E2F7C401841B9F
:1027B000950BA80102C0559547958A95E2F7A42B81
:1027C0008A2F8095782388818A23782B7883620FDB
:1027D000683040F0DD2011F0C20101C0C301A80E35
:1027E000B91E6F2F320F383040F0CC2011F0C201EB
:1027F00001C0C301C80FD91F3F2FE21B09F0A5CFAD
:10280000DF91CF911F910F91FF90EF90DF90CF90CC
:10281000BF90AF909F908F907F906F905F904F9000
:1028200008952F923F924F925F926F927F928F9274
:102830009F92AF92BF92CF92DF92EF92FF920F934F
:102840001F93CF93DF93CDB7DEB76B970FB6F89496
:10285000DEBF0FBECDBF9B8F8A8F598F488FDC01A3
:1028600012964D915C911397FC01A285B38570E09F
:102870001A968D919C911B97860F971F9C01220F92
:10288000331F220F331F820F931F1A01280E391E88
:10289000F10120813181F9010680F781E02DFB8B68
:1028A000EA8B18968D919C911997860F971F9C0122
:1028B000220F331F220F331F820F931F840F951F88
:1028C000DC01ED91FC910684F785E02D80819181FA
:1028D0009770E88DF98D9183808312821E861F8602
:1028E000188A198ADD24BB246894B3F80F2EF6E009
:1028F0008F2E9924F02D8C0E9D1ED401EB2D1D9250
:10290000EA95E9F78D2D90E00196880F991F880FC1
:10291000991F880F991FD101ED91FC911197E80F34
:10292000F91F0680F781E02D40815181628173811A
:102930000F2EFFEF4F2EF0E05F2EF0E06F2EF0E055
:102940007F2EF02D44225522662277224114510415
:102950006104710409F46AC08E859F85A889B989CC
:10296000840D951DA61DB71D8C8B9D8BAE8BBF8BCB
:1029700081349105A105B10508F058C0D301C20109
:102980000197A109B109689412F8B695A795979592
:1029900087951694D1F70196A11DB11D8A839B835B
:1029A000AC83BD83AB016627772780819181A281AB
:1029B000B381092F1A2F2B2F33278A8D9B8DBA01B4
:1029C000402F94018E010E5F1F4F7E010894E11C81
:1029D000F11CCC24AA24A3940E944E10DC01CB014C
:1029E0000097A105B105F1F58E859F85A889B98964
:1029F000689412F8B695A795979587951694D1F790
:102A00000496088D198D080F191FEE8497E0E922AE
:102A1000842DB40140E020E00E947C138C899D89C4
:102A2000AE89BF898E879F87A88BB98BD394AA89DB
:102A3000BB898C91D81608F460CF8E859F85A889B4
:102A4000B9890197A109B109689412F8B695A795BB
:102A5000979587951694D1F78F5FE88DF98D8383CD
:102A600080E001C08FEF6B960FB6F894DEBF0FBE0B
:102A7000CDBFDF91CF911F910F91FF90EF90DF902D
:102A8000CF90BF90AF909F908F907F906F905F900E
:102A90004F903F902F9008952F923F924F925F92C8
:102AA0006F927F929F92AF92BF92CF92DF92EF92FE
:102AB000FF920F931F93CF93DF93CDB7DEB7649749
:102AC0000FB6F894DEBF0FBECDBF3C01962EFC01C1
:102AD000EB59FF4F8081882309F405C1E62EFF24BE
:102AE000C70182959295907F9827807F98272C0127
:102AF0004E0C5F1CD3011496ED91FC911597E40DDB
:102B0000F51D808180FDF1C01A96ED91FC911B9717
:102B1000C084D184AE014F5F5F4F8CE0FA01119207
:102B20008A95E9F7C3010E941114882309F0DFC0D8
:102B3000D30114968D919C9115978C01040D151D50
:102B4000F8018581968129813A818217930799F44A
:102B500090858C81981779F4C8010996BE016B5F46
:102B60007F4F48E050E00E941452282F392F211542
:102B7000310509F4BEC0C7018C0D9D1D9C01220FBB
:102B8000331F220F331F280F391FD30112968D9147
:102B90009C911397820F931FFC01A081B1819E9697
:102BA000ED91FC919F97808191816C01EE24FF242F
:102BB0005E96ED91FC915F97808191819C0140E050
:102BC00050E02D873E874F87588BC114D104E10414
:102BD000F10481F1D80111968D919C9112970E9478
:102BE0006A45F301848195811C01240C351C292D33
:102BF00030E040E050E0298B3A8B4B8B5C8BC70177
:102C0000B6012AEF30E040E050E00E94A4517B0181
:102C10008C01C30149895A896B897C8927EB36E18C
:102C2000AA24BB2465010E947744D10112969C938B
:102C30008E9311972D853E854F8558892115310535
:102C40004105510509F443C0D3011496ED91FC915F
:102C50001597E40DF51D838194810E946A45F30167
:102C6000848195811C01240C351CA92CBB24CC2407
:102C7000DD246D857E858F85988924E630E040E0EF
:102C800050E00E94A451DC01CB017C018D0116951E
:102C90000795F794E79416950795F794E794C30181
:102CA000B601A50122E936E1AA24BB2465010E94F0
:102CB0007744D10114969C938E931397F3018481EA
:102CC0009581FC01E40DF51D808181608083492D93
:102CD00050E060E070E0C3019E012F5F3F4F0E9413
:102CE000FE1281E007C080E005C080E003C080E004
:102CF00001C080E064960FB6F894DEBF0FBECDBF72
:102D0000DF91CF911F910F91FF90EF90DF90CF90C7
:102D1000BF90AF909F907F906F905F904F903F904B
:102D20002F900895DC01242F352FC90182959295AB
:102D3000907F9827807F9827820F931F1496ED919C
:102D4000FC911597E80FF91F2FEF3FEF3483238392
:102D500014962D913C911597F901E80FF91F808188
:102D60008E7F8083CD01642F0E944C150895DC0175
:102D7000242F352FC90182959295907F9827807FC7
:102D80009827820F931F1496ED91FC911597E80FE9
:102D9000F91F2FEF3FEF3283218314962D913C9141
:102DA0001597820F931FFC0116821582CD01642FA7
:102DB0000E944C150895DF92EF92FF920F931F939C
:102DC000CF93DF938C01FC01EB59FF4F8081882367
:102DD00009F457C0423008F454C0443018F045306C
:102DE00009F04FC0D8011A96ED91FC911B97808590
:102DF00091859C01220F331F220F331F820F931FD7
:102E000012962D913C911397820F931F681B790B9B
:102E10008DEC9CEC689FD02C11248D2D90E07C01D2
:102E2000EE0CFF1CEE0CFF1CEE0CFF1CEE0CFF1C4E
:102E3000E80EF91E1496CD91DC911597CE0DDF1D8D
:102E400089819A810E946A459A838983F801C481A5
:102E5000D581CE0DDF1D8B819C810E946A459C83AC
:102E60008B83D80114968D919C911597E80EF91ECD
:102E7000F70110824D2D50E060E070E0C8010E9423
:102E8000B71660E070E0CB01DF91CF911F910F91F9
:102E9000FF90EF90DF9008952F923F924F925F92B4
:102EA0006F927F928F929F92AF92BF92CF92DF925A
:102EB000EF92FF920F931F93CF93DF93CDB7DEB7BF
:102EC0006B970FB6F894DEBF0FBECDBF9A8B898B80
:102ED0007C8B6B8BDB0112968C911297882309F007
:102EE00083C1E989FA89A285B38514964D915C91D5
:102EF000159784859585FC01A480B5804115510501
:102F000009F05EC180E06AC2812F01C0802F82304B
:102F100019F08430E1F71FC0A989BA8912968D9102
:102F20009C911397880D991DDC01ED91FC911197EF
:102F30000684F785E02D80819181EB89FC892081D1
:102F400031818217930701F36F5F7F4F25E030E0F7
:102F5000820E931E41C1FB8ED30116964D915C915A
:102F60001797588F4F8B8F2D90E09A8F898F840FF2
:102F7000951F9C01220F331F220F331FD901A80F69
:102F8000B91FBE8BAD8BE989FA89828193818A0F43
:102F90009B1FDC01ED91FC91119726803780F10198
:102FA0008081882309F4ADC0FE01359688E0DF01F9
:102FB0001D928A95E9F7E989FA89828193812D89A1
:102FC0003E89820F931FDC01ED91FC911197A6843D
:102FD000B784A114B10409F4F2C17724FF240F2EA1
:102FE000F5E04F2E5524F02D4C0E5D1E662468949E
:102FF00063F824C0F201262D11922A95E9F7A989D8
:10300000BA8912968D919C911397AD89BE89A80FAC
:10301000B91FEF2DF0E03196CF01880F991F880F6F
:10302000991F880F991FED91FC911197E80FF91FD7
:10303000A680B780A114B10409F4C3C1F501D08002
:10304000DD2009F458C08D2C99249401270D311DE1
:10305000AB89BC8913968C91139790E0880F991FC8
:10306000880F991F880F991F821793070CF443C08C
:10307000672D66956695669570E06C5F7F4F6A0F69
:103080007B1F472D47708D2D20E08201EE24CC243C
:103090000E947C13C4010197959587959595879516
:1030A000959587950196AA2797FDA095BA2F8983B4
:1030B0009A83AB83BC83F50180819181A281B38126
:1030C000AD0166277727092F1A2F2B2F33278989E0
:1030D0009A89BA01402F92018E010F5F1F4FCC24B5
:1030E000C3940E945D11DC01CB010097A105B105DD
:1030F00009F069C17D0CF394D1018C91F81608F4A4
:1031000079CFE989FA89468157814115510509F43A
:103110005CC12F89388D220F331F220F331F8F89F7
:10312000988D280F391F82819381820F931FDC01B4
:10313000ED91FC91119706A4F7A5E02D8080918078
:10314000AA24BB2481149104A104B10409F43FC151
:10315000098D1A8D000F111FFA01E00FF11F8081F8
:1031600091810E946A45E989FA89868197811C01CB
:10317000200E311EFB8D4F2E552466247724A989FD
:10318000BA8918960D911C911997C501B4012AEFBF
:1031900030E040E050E00E94A4514B015C0189897D
:1031A0009A89B301A201980185017401AA24BB2464
:1031B00065010E947744F1019183808380E00EC114
:1031C000CA01880F991F880F991F4C01840E951E04
:1031D000BA0102E014E03D01F62EF41AA616B70675
:1031E00008F094CE80E0FAC0813009F0F2C0A989DD
:1031F000BA891A96ED91FC911B97608571851C9692
:10320000ED91FC911D97A085B1856115710509F0BF
:10321000CCC080E0E3C0443039F1453009F4A8C0A7
:103220004130C9F7CB01880F991F880F991F860F6E
:10323000971FE989FA8922813381F901E80FF91F83
:103240000190F081E02D0684F785E02D8081918149
:10325000EB89FC89208131818217930709F49FC093
:10326000F3946F5F7F4FA5C0CB01880F991F880F24
:10327000991F860F971FE989FA8922813381F90105
:10328000E80FF91F0190F081E02D0688F789E02D05
:1032900080818D3F09F485C08C3F19F58F2D90E01A
:1032A000FC01E295F295F07FFE27E07FFE278E0F6E
:1032B0009F1FE989FA8924813581F901E80FF91FF7
:1032C000808180FF70C0CF01E989FA89E856FE4FFE
:1032D000BC016B5F7F4F808191810E94BF0080E0C5
:1032E0007DC08E5F823008F076C08F2D90E09C010B
:1032F00022953295307F3227207F32275901A80E40
:10330000B91EA989BA8914960D911C9115970A0DB9
:103310001B1DF801818192810E946A45D801129695
:103320009C938E931197E989FA89048115810A0D7E
:103330001B1DD80113968D919C9114970E946A458C
:10334000F80194838383A989BA8914968D919C91FD
:103350001597FC01EA0DFB1D80818E7F80834F2D28
:1033600050E060E070E0CD010E94B71680E036C00A
:1033700089899A896F2DAE014B5F5F4F0E941114AE
:10338000882359F5E989FA89E856FE4F80819181B1
:10339000BE016B5F7F4F0E94BF0080E01FC0412FC6
:1033A00008C0452F06C0452F04C041E0FF2414E0AB
:1033B00055E0A617B70708F02ECF80E00FC08FEFBB
:1033C0000DC08FEF0BC08FEF09C080E007C080E019
:1033D00005C080E003C08FEF01C08FEF6B960FB682
:1033E000F894DEBF0FBECDBFDF91CF911F910F913B
:1033F000FF90EF90DF90CF90BF90AF909F908F9015
:103400007F906F905F904F903F902F900895089518
:103410002F923F925F926F927F928F929F92AF9284
:10342000BF92CF92DF92EF92FF920F931F93CF93B1
:10343000DF93CDB7DEB72C970FB6F894DEBF0FBE83
:10344000CDBF8C01F62EDC011A96ED91FC911B97F5
:10345000C084D1841C96ED91FC911D97A084B18409
:10346000FC01EB59FF4F8081882309F4F2C0C1149D
:10347000D10409F4F0C0FE0131968CE0DF011D9209
:103480008A95E9F7AC14BD0408F4E7C083E0EE24A4
:103490003F010F2EFBE09F2EF02D0F2EF3E08F2E1D
:1034A000F02D0F2EFCE05F2EF02D853009F4B6C014
:1034B0008B3009F4BDC0833009F0D1C09601220FD2
:1034C000331F220F331F2C0D3D1DF8018281938184
:1034D000820F931FDC012D913C91D9011E96ED9135
:1034E000FC911F9780819181A281B381BB230CF451
:1034F000A5C0D9015696ED91FC915797FF20B9F1DF
:103500008081882309F4C9C0813F08F0C1C08E2D95
:1035100090E09C0122953295307F3227207F322720
:10352000280F391FD80114968D919C911597DC01B5
:10353000A20FB31F8C91982F9F5F9C938081981747
:1035400009F0A6C0F80184819581820F931FDC01E8
:103550001C92F301852D11928A95E9F7C8016E2D11
:10356000A3010E941114882309F06AC057C080810A
:103570008E5F8230C8F1892D66C08E2D90E09C014F
:1035800022953295307F3227207F32271901280E6D
:10359000391ED80114964D915C911597420D531D1B
:1035A0004B5F5F4FC8016E2D0E941114882359F0A4
:1035B000F80184819581FC01E20DF31D80818E7FED
:1035C0008083892D40C0D80114968D919C911597C8
:1035D000FC01E20DF31D808181608083892D33C061
:1035E0008823B1F0892D2FC08E2D90E09C0122956B
:1035F0003295307F3227207F3227280F391FF8017C
:1036000084819581820F931FDC018C9180FD1AC00B
:10361000C8016E2D0E944C15892D15C04E2D50E00D
:1036200060E070E0C80193010E94FE12892D0BC07A
:10363000E3940894C11CD11C882D05C0892D03C0BA
:10364000892D01C0892DAC14BD0408F02ECF80E077
:1036500007C080E005C080E003C080E001C08FEFBC
:103660002C960FB6F894DEBF0FBECDBFDF91CF9181
:103670001F910F91FF90EF90DF90CF90BF90AF9090
:103680009F908F907F906F905F903F902F900895C4
:1036900080818C3F09F0A4CF70CF8081A1CF60E002
:1036A0000E94081A08958F929F92AF92BF92CF9274
:1036B000DF92EF92FF920F931F93CF93DF9300D08F
:1036C00000D000D0CDB7DEB76C01DC011A96ED91C9
:1036D000FC911B97008511851C96ED91FC911D971F
:1036E000808491840115110591F18016910678F17D
:1036F0000F2EEE24F8E1FF2EF02D0F2EFBEDAF2E56
:10370000F6E1BF2EF02DC601B701AE014D5F5F4F50
:103710009E012F5F3F4F0E94B2128B819C81AD8131
:10372000BE810097A105B10551F4E981FA81309776
:1037300031F0B582A482B782A682B386A2860894AD
:10374000E11CF11C0F5F1F4F80169106E0F6C601C9
:1037500060E00E94081A26960FB6F894DEBF0FBEEE
:10376000CDBFDF91CF911F910F91FF90EF90DF9030
:10377000CF90BF90AF909F908F9008958F929F921F
:10378000AF92BF92CF92DF92EF92FF920F931F936F
:10379000CF93DF937C01DC011A96ED91FC911B978E
:1037A000808491841C96ED91FC911D97A084B18436
:1037B0008114910409F43FC0A814B904E0F1640134
:1037C0008C2D881990E09C0122953295307F32270C
:1037D000207F32278901080F191FF7018481958105
:1037E000EC01C00FD11F89819A810E946A459A839A
:1037F0008983D70114968D919C911597EC01C00F88
:10380000D11F8B819C810E946A459C838B83F70129
:1038100084819581800F911FDC011C9284819581A8
:10382000800F911FFC01168215820894C11CD11CC7
:10383000AC14BD0428F6DF91CF911F910F91FF903A
:10384000EF90DF90CF90BF90AF909F908F900895B2
:10385000CF92EF920F931F93CF93DF9300D000D0BE
:10386000CDB7DEB7AC0170E02BE430E0629FC00161
:10387000639F900D729F900D1124840F951FFC0182
:10388000878D90A1A1A1B2A10097A105B10599F4DE
:103890008BE490E0689FF001699FF00D789FF00D38
:1038A0001124E40FF51F83A194A1A5A1B6A1878FD0
:1038B00090A3A1A3B2A38BE490E0689F9001699FBD
:1038C000300D789F300D1124FA01E20FF31F878D20
:1038D00090A1A1A1B2A189839A83AB83BC83648D9B
:1038E000758D295D3F4F240F351FCA01468D8E010E
:1038F0000F5F1F4FEE24E394CC24C3940E945D110C
:103900000F900F900F900F90DF91CF911F910F911B
:10391000EF90CF9008956F927F928F929F92AF9287
:10392000CF92DF92EF92FF920F931F93CF93DF938B
:1039300000D000D00F92CDB7DEB74C0180E290E00E
:10394000A0E0B0E089839A83AB83BC83662E7724A2
:103950008BE490E0689E9001699E300D789E300D5A
:103960001124F401E20FF31F648D758D295D3F4F23
:10397000280D391DC401468D8E010F5F1F4F0F2E7C
:10398000F5E0EF2EFF24F02DEC0EFD1ECC24C394A9
:10399000AA24A3940E944E106B017C01611571054D
:1039A00081059105C1F42BE430E0629EC001639E65
:1039B000900D729E900D1124F401E80FF91F89817A
:1039C0009A81AB81BC81878F90A3A1A3B2A313A2DC
:1039D00014A215A216A26C2D7D2D8E2D9F2D0F9059
:1039E0000F900F900F900F90DF91CF911F910F913B
:1039F000FF90EF90DF90CF90AF909F908F907F904F
:103A00006F9008956F927F928F929F92AF92BF9224
:103A1000CF92DF92EF92FF920F931F93CF93DF939A
:103A2000EC0149015A01662E77248BE490E0689EF0
:103A30009001699E300D789E300D11242C0F3D1F92
:103A4000F901C3A0D4A0E5A0F6A0B501A4014C0DD6
:103A50005D1D6E1D7F1D413251056105710508F028
:103A600042C0878D90A1A1A1B2A184179507A60796
:103A7000B707D8F181149104A104B104D9F040E052
:103A800050E0BA01A0E09F014C0D5D1D6E1D7F1D31
:103A9000420F531FFA0187A1F801EA0FF11D80833D
:103AA000AF5F4A2F50E060E070E0481559056A05A5
:103AB0007B0550F32BE430E0629EC001639E900DC5
:103AC000729E900D1124C80FD91F8BA19CA1ADA18E
:103AD000BEA1880E991EAA1EBB1E8BA29CA2ADA2DF
:103AE000BEA280E003C08FEF01C08FEFDF91CF91C6
:103AF0001F910F91FF90EF90DF90CF90BF90AF900C
:103B00009F908F907F906F9008956F927F928F9289
:103B10009F92AF92BF92CF92DF92EF92FF920F935C
:103B20001F93CF93DF93EC0149015A01662E77244E
:103B30008BE490E0689E9001699E300D789E300D78
:103B400011242C0F3D1FF901C3A0D4A0E5A0F6A0BD
:103B5000D501C4018C0D9D1DAE1DBF1D8132910587
:103B6000A105B105C8F581149104A104B104D9F0EF
:103B700040E050E0BA01A0E09F01F801EA0FF11D1A
:103B800080814C0D5D1D6E1D7F1D420F531FFA017C
:103B900087A3AF5F4A2F50E060E070E048155905F9
:103BA0006A057B0550F32BE430E0629EC001639E02
:103BB000900D729E900D1124C80FD91F8BA19CA14E
:103BC000ADA1BEA1880E991EAA1EBB1E8BA29CA2EF
:103BD000ADA2BEA280E001C08FEFDF91CF911F9117
:103BE0000F91FF90EF90DF90CF90BF90AF909F909C
:103BF0008F907F906F9008952F923F924F925F9297
:103C00006F927F928F929F92AF92BF92CF92DF92EC
:103C1000EF92FF920F931F93CF93DF932C01962E79
:103C2000642E1901802E7E2C8E2D8250843048F512
:103C3000462F50E060E070E0C2012DED30E20F2E23
:103C4000F0EBEF2EF1E7FF2EF0E00F2FF0E01F2F4B
:103C5000F02DAA24BB2465010E947744292D30E071
:103C60004BE450E0249FB001259F700D349F700DF0
:103C70001124640D751DFB01E55AFF4F918380836C
:103C800015C0862F90E02BE430E0829FE001839FF7
:103C9000D00D929FD00D1124C40DD51DC55ADF4FF4
:103CA000888199810E946A4599838883892D90E053
:103CB0002BE430E0829FA001839F500D929F500D16
:103CC0001124F201E40FF51F648A358E248E868E4E
:103CD000768A178A178E10A211A212A213A214A21A
:103CE00015A216A2DF01A95BBF4F1C92DF01A85BE2
:103CF000BF4F1C92DF01A75BBF4F1C92DF01A65B89
:103D0000BF4F1D921D921D921C921397DF01A25B63
:103D1000BF4F1C92DF01A15BBF4F1C92DF01A05B74
:103D2000BF4F1C92DF01AF5ABF4F1C92DF01A65A52
:103D3000BF4F1C92E35AFF4F1182108280E0DF9147
:103D4000CF911F910F91FF90EF90DF90CF90BF9098
:103D5000AF909F908F907F906F905F904F903F902B
:103D60002F900895CF92DF92EF920F93CF93DF932E
:103D70006C01C62F40E020E030E000E0EE240E941D
:103D8000FC1DD0E08BE490E0C89FF001C99FF00DCE
:103D9000D89FF00D1124B796EC0DFD1D80E090E04A
:103DA0001192019680329105D9F72BE430E0C29F41
:103DB000C001C39F900DD29F900D1124F601E80F12
:103DC000F91F158A108E118E128E138EDF91CF91EE
:103DD0000F91EF90DF90CF90089560E00E94B21EA7
:103DE0000895FC018689882321F4DA011C92658BF1
:103DF00008958FEF0895FC018689882379F085382E
:103E000079F08489861771F48589841769F42115FE
:103E1000310561F0F901108280E008958FEF089577
:103E20008FEF08958FEF08958FEF089580E0089544
:103E3000FC018689882369F08489861761F4858965
:103E4000841759F42115310551F0F901108280E0F1
:103E500008958FEF08958FEF08958FEF089580E014
:103E600008950F931F93CF93DF93FC018A01A62F30
:103E7000B0E08BE490E0A89F9001A99F300DB89F1F
:103E8000300D11242E0F3F1FE9014F8D58A169A15C
:103E90007AA1411551056105710531F4F8011082CF
:103EA00011821282138218C08BE490E0A89F9001C7
:103EB000A99F300DB89F300D1124E20FF31F83A18D
:103EC00094A1A5A1B6A1481B590B6A0B7B0BE80175
:103ED000488359836A837B8380E0DF91CF911F9170
:103EE0000F910895CF92DF92EF92FF92FC0169014A
:103EF0007A01213231054105510590F470E08BE4DF
:103F000090E0689F9001699F300D789F300D1124DB
:103F1000E20FF31FC78ED0A2E1A2F2A280E001C09F
:103F20008FEFFF90EF90DF90CF9008950F931F9346
:103F3000CF93DF93CDB7DEB72C970FB6F894DEBFE3
:103F40000FBECDBF8C01FC01E15AFF4F808185304F
:103F500019F08F3709F07AC0613089F5D8011A96C7
:103F6000ED91FC911B9780819181009709F470C0BD
:103F7000FC01E40FF11DAF011C96ED91FC911D9722
:103F8000808191818417950708F464C0CA01880F65
:103F9000991F880F991F840F951F12964D915C9160
:103FA0001397840F951FDC01ED91FC911197068802
:103FB000F789E02D808191819A8389832EC0D80171
:103FC0001A96ED91FC911B9782819381009709F4D9
:103FD00043C0FC01E40FF11DAF011C96ED91FC9173
:103FE0001D978281938184179507C0F1CA01880FBC
:103FF000991F880F991F840F951F12964D915C9100
:104000001397840F951FDC01ED91FC910684F785D1
:10401000E02D808191819A8389831B8288E08C8343
:10402000A22FB32FFE013596CE010D962D9121932F
:10403000E817F907D9F7F801E856FE4F808191811A
:10404000BE016F5F7F4F0E94BF0009C08FEF07C0A6
:104050008FEF05C08FEF03C08FEF01C08FEF2C965D
:104060000FB6F894DEBF0FBECDBFDF91CF911F9189
:104070000F910895CF92DF92EF92FF920F93CF931B
:10408000DF93CDB7DEB728970FB6F894DEBF0FBE2B
:10409000CDBF50E859832A833B830C83CD82DE82D7
:1040A000EF82F8869E012F5F3F4F0E94961F289651
:1040B0000FB6F894DEBF0FBECDBFDF91CF910F9149
:1040C000FF90EF90DF90CF9008952F923F924F9204
:1040D0005F926F927F929F92AF92BF92CF92DF9248
:1040E000EF92FF920F931F93CF93DF930F92CDB771
:1040F000DEB73C01962EA42E2901B02E9E012F5F23
:104100003F4F0E94FB1E8823A9F581E0A81609F005
:1041100050C0C30169810E94B21E2CC0898190E009
:104120000F2EFBE42F2E3324F02D829D8001839DE2
:10413000100D929D100D1124060D171D055A1F4FCD
:10414000F801808191810E946A45F8019183808302
:10415000898190E0829D9001839D300D929D300D6C
:104160001124F301E20FF31F85E8868BC08ED18EF8
:10417000E28EF38EC3016A2D492D92010B2D0E9410
:104180003A20882311F08FEF01C080E00F90DF917B
:10419000CF911F910F91FF90EF90DF90CF90BF9044
:1041A000AF909F907F906F905F904F903F902F9037
:1041B0000895F2E0AF16F1F6B1CF8F929F92AF92D1
:1041C000BF92CF92DF92EF92FF920F931F93CF9304
:1041D000DF935C01D42FC52FDC011A96ED91FC9181
:1041E0001B97628173816115710509F4DAC0842F10
:1041F000952F2BE430E0829FA001839F500D929F6A
:10420000500D11244A0D5B1DFA018489680F711D40
:104210001C96ED91FC911D978281938186179707DB
:1042200008F4BFC0CB01880F991F880F991F680F32
:10423000791F12968D919C911397680F791FDB015E
:10424000ED91FC91068CF78DE02D10818D2F9C2F28
:104250000F2EFBE48F2E9924F02D889DF001899D6F
:10426000F00D989DF00D1124EA0DFB1DE55AFF4F4E
:104270008FEF9FEF918380838D2F9C2F889D9001DE
:10428000899D300D989D300D11242A0D3B1D85E828
:10429000F901868B8D2F889D9001899D300D989D09
:1042A000300D1124B501620F731F889D9001899D07
:1042B000300D989D300D1124A501420F531F889D8C
:1042C0009001899D300D989D300D11242A0D3B1DC4
:1042D000F901A48DB58D889D9001899D300D989D23
:1042E000300D11247501E20EF31EC501FB01658935
:1042F000FA0144899D01D7015E960C910F2EF0E0E2
:10430000CF2EF0E0DF2EF4E0EF2EF5E0FF2EF02DC3
:104310000E943A208D2F9C2F889DF001899DF00DE1
:10432000989DF00D1124EA0DFB1D80E090E0A4E0C3
:10433000B5E0808F918FA28FB38F8D2F9C2F889D9A
:104340009001899D300D989D300D11242A0D3B1D43
:10435000F901E35AFF4F0190F081E02D3097E9F029
:10436000C501612F09954D2F5C2F2BE430E0429F52
:10437000C001439F900D529F900D11248A0D9B1DEB
:10438000FC01808D918DA28DB38D8030F0E09F0770
:10439000F4E0AF07F5E0BF0721F4C5016D2F0E94DF
:1043A000B21EDF91CF911F910F91FF90EF90DF90A0
:1043B000CF90BF90AF909F908F9008952F923F9293
:1043C0004F925F926F927F928F929F92AF92BF9225
:1043D000CF92DF92EF92FF920F931F93CF93DF93D1
:1043E000CDB7DEB762970FB6F894DEBF0FBECDBF74
:1043F0002C011B01DC011A96AD90BC901B97F501B6
:10440000608171811C968D909C901D97D4010D91B7
:104410001C9111976115710509F45EC00617170705
:1044200008F45AC0FC0142815381CB01880F991FC7
:10443000880F991F860F971FFA01E80FF91F8281D5
:10444000823010F40C948739D1018D919C916C01CC
:10445000EE24FF240190F081E02D0684F785E02D05
:1044600080819181A281B3818C159D05AE05BF0528
:1044700011F40C94D139CB0101969C01220F331F0A
:10448000220F331F820F931F840F951F9C012E5FF5
:104490003F4FAB011CC0F9018081823010F40C94B5
:1044A0008939742E761A2B5F3F4F32970190F08135
:1044B000E02D0684F785E02D80819181A281B38172
:1044C0008C159D05AE05BF0511F40C94D2394F5FD4
:1044D0005F4F04171507F8F6F501A280B380D401E9
:1044E00012968D909C901397A114B10411F40C9422
:1044F0008B398A149B0410F40C948D39F20142819B
:104500005381F501EE0FFF1FEE0FFF1FEA0DFB1D9C
:10451000E40FF51F8281843010F40C948F39608190
:104520007181D1018D919C916C01EE24FF24DB01FE
:104530005696ED91FC91579780819181A281B3812C
:104540008C159D05AE05BF0549F51CC0F90180819C
:10455000843010F40C949139042F0A193297608139
:1045600071812B5F3F4FDB015696ED91FC91579780
:1045700080819181A281B3818C159D05AE05BF0517
:10458000E1F401C000E0DB015E96ED91FC915F97E4
:104590006080702E8824689481F817C0C501019648
:1045A0009C01220F331F220F331F820F931F840F92
:1045B000951F9C012E5F3F4FA5014F5F5F4F8416F3
:1045C000950620F68FEF0C94B839F101838188307D
:1045D00081F0C201672D482D20E030E000E0CC24BE
:1045E000DD2476016894F3F80E9465208FEF0C9427
:1045F000B839C201672D482D9E012F5F3F4F0E94A1
:10460000FB1E682F8823A9F5F1E08F16A1F489819C
:1046100090E02BE430E0829FA001839F500D929F99
:10462000500D1124440D551DDA0156968C91569764
:104630008430F9F414C0B2E08B16D9F4898190E08B
:104640002BE430E0829FA001839F500D929F500D7C
:104650001124440D551DFA018689853051F4D1018C
:1046600014968C911497803811F40C94D73986E005
:1046700005C0F1018481829586958770833009F4A5
:104680006FC7843038F4813009F492C2823008F068
:1046900043C50EC0853011F40C94012E853010F402
:1046A0000C94862D863011F00C9493390C94613360
:1046B000F1E08F1609F032C1662399F4098110E008
:1046C0008BE490E0089F9001099F300D189F300DFA
:1046D0001124240D351DD90156968C9156978230A0
:1046E000A9F0C201672D482D20E030E000E00F2E38
:1046F000F1E2CF2EF0E0DF2EF0E0EF2EF8E0FF2E1B
:10470000F02D0E9465208FEF0C94B8398BE490E077
:10471000089F9001099F300D189F300D1124240D22
:10472000351DF901E55AFF4F80819181BFEF8F3F21
:104730009B07F1F10E946A45EBE4F0E00E9F9001C7
:104740000F9F300D1E9F300D1124240D351DF901D2
:10475000E55AFF4F918380839980492D50E060E0B6
:1047600070E0C2012DED30E20F2EF0EBEF2EF1E7FD
:10477000FF2EF0E00F2FF0E01F2FF02DAA24BB2416
:1047800065010E947744292D30E00F2EFBE4EF2EC7
:10479000FF24F02D2E9DA0012F9D500D3E9D500D0C
:1047A0001124440D551DFA01E55AFF4F9183808372
:1047B0006981862F90E02BE430E0829FA001839FE7
:1047C000500D929F500D1124F201E40FF51F848CBF
:1047D000958CA68CD10114964C911497278930E0C2
:1047E000842F82958F7090E0817090702817390720
:1047F000A1F0C201672D41E094010A2D0F2EF0E0D7
:10480000CF2EF0E0DF2EF3E0EF2EF5E0FF2EF02DBF
:104810000E9465208FEF0C94B839842F869590E024
:1048200080959095AA2797FDA095BA2F9C01AD0180
:1048300027703070407050702A833B834C835D83B7
:10484000F1013596C2018F010E94851D882379F000
:10485000C201672D41E094010A2DCC24DD247601AC
:104860006894F3F80E9465208FEF0C94B839898121
:1048700090E00BE410E0809F9001819F300D909FAD
:10488000300D1124240D351DF90187898295807F13
:1048900080628E831F82188619861A861B861C8664
:1048A0001D86C20161E0472D9E012A5F3F4F0E9495
:1048B000961F6981862F90E0809F9001819F300D27
:1048C000909F300D1124F201E20FF31F81E09789D0
:1048D000911180E0878BD10114968C91149780FD03
:1048E00002C00C949539C2010E94281C6B017C0106
:1048F000611571058105910551F0C201672D41E0F7
:1049000094010A2D0E9465208FEF0C94B839C201E2
:1049100069810E94B21E80E00C94B839662389F444
:10492000098110E08BE490E0089F9001099F300D11
:10493000189F300D1124240D351DF901868983300F
:10494000A9F0C201672D482D20E030E000E00F2ED5
:10495000F1E2CF2EF0E0DF2EF0E0EF2EF8E0FF2EB8
:10496000F02D0E9465208FEF0C94B8398BE490E015
:10497000089F9001099F300D189F300D1124240DC0
:10498000351DF901E55AFF4F80819181FFEF8F3F7F
:104990009F07F1F10E946A450F2EFBE4EF2EFF24E2
:1049A000F02D0E9D90010F9D300D1E9D300D112498
:1049B000240D351DF901E55AFF4F918380839980BD
:1049C000492D50E060E070E0C2012DED30E20F2E85
:1049D000F0EBEF2EF1E7FF2EF0E00F2FF0E01F2FAE
:1049E000F02DAA24BB2465010E947744292D30E0D4
:1049F0000BE410E0209FA001219F500D309F500D2F
:104A00001124440D551DFA01E55AFF4F918380830F
:104A10006981862F90E02BE430E0829FA001839F84
:104A2000500D929F500D1124F201E40FF51FA48C3C
:104A3000B58CC68CD10114964C911497278930E01F
:104A4000842F82958F7090E08170907028173907BD
:104A5000A1F0C201672D482D95010C2D0F2EF0E01D
:104A6000CF2EF0E0DF2EF3E0EF2EF5E0FF2EF02D5D
:104A70000E9465208FEF0C94B839842F869590E0C2
:104A800080959095AA2797FDA095BA2F9C01AD011E
:104A900027703070407050702A833B834C835D8355
:104AA000F1013596C2018F010E94851D882379F09E
:104AB000C201672D482D95010C2DCC24DD247601F3
:104AC0006894F3F80E9465208FEF0C94B8394981FF
:104AD00050E08BE490E0489F9001499F300D589F33
:104AE000300D1124240D351D61E0F90187898111F4
:104AF00060E08BE490E0489F9001499F300D589F03
:104B0000300D1124240D351DD90157966C935797FC
:104B1000F101848180FF30C00BE410E00F2EFBE533
:104B2000CF2EDD24F02DC20ED31ED6018D919C9187
:104B30000E946A45F60191838083298130E0209F9D
:104B4000C001219F900D309F900D1124840D951D63
:104B500021E0DC0156962C93835A9F4FDC01ED91A6
:104B6000FC911197309711F40C949739C201662D7E
:104B7000099580E00C94B839862F90E08295929543
:104B8000907F9827807F982780668E831F82188663
:104B900019861A861B861C861D86C201682D472D24
:104BA0009E012A5F3F4F0E94961F80E00C94B83907
:104BB000B1E08B1609F0FFC0F101368120E085815C
:104BC00090E04901882A992AA7806623A1F4C201AE
:104BD000672D41E094010A2D0F2EF1E2CF2EF0E077
:104BE000DF2EF0E0EF2EF8E0FF2EF02D0E94652082
:104BF0008FEF0C94B839C20161E0AE014F5F5F4F97
:104C00000E94F11E8823A1F0C201672D41E09401AA
:104C10000A2D0F2EF1E2CF2EF0E0DF2EF0E0EF2E86
:104C2000F8E0FF2EF02D0E9465208FEF0C94B8392C
:104C3000C2016981472D94010A2DEE246894E1F8A0
:104C40000E94FC1DD10114968C911497982F969573
:104C500090FF57C086958695282F237084E090E0BA
:104C6000821B91096C01EE24D7FCE094FE2CCA82D1
:104C7000DB82EC82FD826981862F90E02BE430E0BC
:104C8000829FA001839F500D929F500D1124440DCF
:104C9000551DFA01C78ED0A2E1A2F2A2F101389609
:104CA000C201A70196018F010E94851D882379F01A
:104CB000C201672D41E094010A2DCC24DD24760148
:104CC0006894F3F80E9465208FEF0C94B839C20104
:104CD00069810E94281C6B017C01611571058105A9
:104CE000910551F0C201672D41E094010A2D0E9407
:104CF00065208FEF0C94B839C20169810E94B21E01
:104D000046C080FF44C0D10119968C9190E0A0E08C
:104D1000B0E04427582F692F7A2FF101828590E067
:104D2000A0E0B0E0DC0199278827840F951FA61F1B
:104D3000B71F20857C018D01E20EF11C011D111DA4
:104D4000A8019701838590E0A0E0B0E0B82FAA27E2
:104D500099278827280F391F4A1F5B1F2A833B8307
:104D60004C835D83C20169810E94721F882379F0A0
:104D7000C201672D41E094010A2DCC24DD24760187
:104D80006894F3F80E9465208FEF0C94B83980E6A0
:104D90008E838F829886A9861A861B861C861D861E
:104DA000C20161E0472D9E012A5F3F4F0E94961F7E
:104DB00080E00C94B839662399F4098110E08BE403
:104DC00090E0089F9001099F300D189F300D11242D
:104DD000240D351DD90156968C9156978230A9F035
:104DE000C201672D482D20E030E000E00F2EF1E2F7
:104DF000CF2EF0E0DF2EF0E0EF2EF8E0FF2EF02DCA
:104E00000E9465208FEF0C94B8398BE490E0089FE6
:104E10009001099F300D189F300D1124240D351D70
:104E2000F901E55AFF4F80819181BFEF8F3F9B07CA
:104E3000F1F10E946A45EBE4F0E00E9F90010F9FB4
:104E4000300D1E9F300D1124240D351DF901E55A3A
:104E5000FF4F918380839980492D50E060E070E09E
:104E6000C2012DED30E20F2EF0EBEF2EF1E7FF2E19
:104E7000F0E00F2FF0E01F2FF02DAA24BB246501D6
:104E80000E947744292D30E00F2EFBE4EF2EFF2403
:104E9000F02D2E9DA0012F9D500D3E9D500D1124F3
:104EA000440D551DFA01E55AFF4F918380836981B6
:104EB000862F90E02BE430E0829FA001839F500D6D
:104EC000929F500D1124F201E40FF51FE48CF58C34
:104ED000FF86EE86A68C278930E0D10114968C914E
:104EE000149782958F7090E0817090702817390721
:104EF000A1F0C201672D482D97010A2D0F2EF0E079
:104F0000CF2EF0E0DF2EF3E0EF2EF5E0FF2EF02DB8
:104F10000E9465208FEF0C94B839C201AE014E5F3C
:104F20005F4F0E94311FCA80DB80EC80FD80C1147E
:104F3000D104E104F104D1F5298130E00BE410E063
:104F4000209FC001219F900D309F900D1124840D52
:104F5000951D0F2EFBE5CF2EDD24F02DC80ED91E9A
:104F6000F601808191810E946A45D6018D939C93C0
:104F7000298130E0209FC001219F900D309F900D2E
:104F80001124840D951D21E0FC01268B835A9F4F2F
:104F9000DC01ED91FC911197309711F40C94993943
:104FA000C201662D099580E00C94B839B8E0CB16A3
:104FB000D104E104F10408F441C06981462F50E0B6
:104FC0008BE490E0489F9001499F300D589F300D31
:104FD0001124240D351D71E0F9018789811170E0DC
:104FE0008BE490E0489F9001499F300D589F300D11
:104FF0001124240D351DD90157967C937295707F2D
:105000007E83C20127E030E040E050E08E01095F7E
:105010001F4F0E94021D882309F473C0C201672D2F
:10502000482D2E853F850A2DCC24DD2476016894F9
:10503000F3F80E9465208FEF0C94B8396981462FF0
:1050400050E08BE490E0489F9001499F300D589FBD
:10505000300D1124240D351D71E0F901878981116E
:1050600070E08BE490E0489F9001499F300D589F7D
:10507000300D1124240D351DD90157967C93972F9F
:105080009295907F916087E08C19880F892B8E8391
:10509000C201A70196018E01095F1F4F0E94021DE8
:1050A000882381F0C201672D482D2E853F850A2D6A
:1050B000CC24DD2476016894F3F80E9465208FEFFC
:1050C0000C94B8390A811B812C813D81B901A8015A
:1050D0004F5F5F4F6F4F7F4F48305105610571053E
:1050E00080F4E6E0F0E0EC0FFD1FE40FF51FCE01C9
:1050F0000D96801B910B840F951F1192E817F907ED
:10510000E1F7C201682D472D9E012A5F3F4F0E94A3
:10511000961F80E00C94B839B1E08B1609F0C8C036
:10512000F101368120E0858190E04901882A992AA1
:10513000A7806623A1F4C201672D41E094010A2DE6
:105140000F2EF1E2CF2EF0E0DF2EF0E0EF2EF8E0B0
:10515000FF2EF02D0E9465208FEF0C94B839C2010C
:1051600061E0AE014F5F5F4F0E94F11E8823A1F006
:10517000C201672D41E094010A2D0F2EF1E2CF2EDE
:10518000F0E0DF2EF0E0EF2EF8E0FF2EF02D0E9491
:1051900065208FEF0C94B839C2016981472D9401C5
:1051A0000A2D0F2EF3E0EF2EF02D0E94FC1DC20100
:1051B00069810E948B1C6B017C0161157105810561
:1051C000910549F0C201672D41E094010E946520DC
:1051D0008FEF0C94B839C2016981AE014E5F5F4F09
:1051E0000E94311F0A811B812C813D8105301105F0
:1051F00021053105A0F081E48E838F829886A986EF
:105200000A871B872C873D87C20161E0472D9E01DD
:105210002A5F3F4F0E94961F80E00C94B83984E0CB
:10522000801B880F880F83648E838F829886A9865F
:10523000C2016981A90198018E01065F1F4F0E947A
:10524000021D882379F0C201672D41E094010A2DE7
:10525000CC24DD2476016894F3F80E9465208FEF5A
:105260000C94B8398A819B81AC81BD810496A11DC3
:10527000B11D0AC0E6E0F0E0EC0FFD1FE80FF91FDA
:1052800010820196A11DB11D88309105A105B105BF
:1052900088F3C20161E0472D9E012A5F3F4F0E94C3
:1052A000961FC20169810E94B21E80E00C94B83939
:1052B000662399F4098110E08BE490E0089F900147
:1052C000099F300D189F300D1124240D351DD90173
:1052D00056968C9156978330A9F0C201672D482DC0
:1052E00020E030E000E00F2EF1E2CF2EF0E0DF2EE4
:1052F000F0E0EF2EF8E0FF2EF02D0E9465208FEFFA
:105300000C94B8398BE490E0089F9001099F300D10
:10531000189F300D1124240D351DF901E55AFF4F5A
:1053200080819181BFEF8F3F9B07F1F10E946A4519
:10533000EBE4F0E00E9F90010F9F300D1E9F300DAB
:105340001124240D351DF901E55AFF4F9183808307
:105350009980492D50E060E070E0C2012DED30E20F
:105360000F2EF0EBEF2EF1E7FF2EF0E00F2FF0E025
:105370001F2FF02DAA24BB2465010E947744292DFC
:1053800030E00F2EFBE4EF2EFF24F02D2E9DA00128
:105390002F9D500D3E9D500D1124440D551DFA01B9
:1053A000E55AFF4F918380830981802F90E02BE4A1
:1053B00030E0829FA001839F500D929F500D1124D9
:1053C000F201E40FF51FA48CB58CC68CD1011496A4
:1053D0008C911497982F969590FF6AC08695869524
:1053E000282F237084E090E0821B91099C014427C0
:1053F00037FD4095542F2A833B834C835D83F10115
:105400003896C201602F8F010E94851D882379F094
:10541000C201672D482D95010C2DCC24DD24760189
:105420006894F3F80E9465208FEF0C94B8392981B5
:1054300030E00BE410E0209FC001219F900D309FD1
:10544000900D1124840D951D0F2EFBE5CF2EDD242C
:10545000F02DC80ED91EF601808191810E946A4507
:10546000D6018D939C93298130E0209FC001219F1C
:10547000900D309F900D1124F201E80FF91F8A81E1
:105480009B81AC81BD81878F90A3A1A3B2A381E052
:10549000868BE35AFF4F0190F081E02D309711F495
:1054A0000C949B39C201662D099580E00C94B839A3
:1054B00080FF42C0F101818590E0A0E0B0E0442788
:1054C000582F692F7A2F828590E0A0E0B0E0DC01B0
:1054D00099278827480F591F6A1F7B1F2085DB01EA
:1054E000CA01820F911DA11DB11D9C01AD018385D3
:1054F00090E0A0E0B0E0B82FAA2799278827280FCE
:10550000391F4A1F5B1F2A833B834C835D83C20183
:10551000602F0E94721F882379F0C201672D482DE9
:1055200095010C2DCC24DD2476016894F3F80E94BB
:1055300065208FEF0C94B83980E68E831F82188621
:1055400019861A861B861C861D86C201682D472D6A
:105550009E012A5F3F4F0E94961F80E00C94B8394D
:1055600091E0891609F06DC1662399F4098110E074
:105570008BE490E0089F9001099F300D189F300D3B
:105580001124240D351DD90156968C9156978330E0
:10559000A9F0C201672D482D20E030E000E00F2E79
:1055A000F1E2CF2EF0E0DF2EF0E0EF2EF8E0FF2E5C
:1055B000F02D0E9465208FEF0C94B8398BE490E0B9
:1055C000089F9001099F300D189F300D1124240D64
:1055D000351DF901E55AFF4F80819181BFEF8F3F63
:1055E0009B07F1F10E946A45EBE4F0E00E9F900109
:1055F0000F9F300D1E9F300D1124240D351DF90114
:10560000E55AFF4F918380839980492D50E060E0F7
:1056100070E0C2012DED30E20F2EF0EBEF2EF1E73E
:10562000FF2EF0E00F2FF0E01F2FF02DAA24BB2457
:1056300065010E947744292D30E00F2EFBE4EF2E08
:10564000FF24F02D2E9DA0012F9D500D3E9D500D4D
:105650001124440D551DFA01E55AFF4F91838083B3
:105660006981862F90E02BE430E0829FA001839F28
:10567000500D929F500D1124F201E40FF51F848C00
:10568000958CA68C278930E0D10114968C911497C3
:1056900082958F7090E08170907028173907A1F083
:1056A000C201672D41E094010A2D0F2EF0E0CF2EAC
:1056B000F0E0DF2EF3E0EF2EF5E0FF2EF02D0E945C
:1056C00065208FEF0C94B839C201AE014E5F5F4F79
:1056D0000E94311FCA80DB80EC80FD80B8E0CB16D1
:1056E000D104E104F10408F44CC06981862F90E0F4
:1056F0002BE430E0829FA001839F500D929F500DBC
:105700001124440D551DFA0187898295807F8E836F
:10571000C20127E030E040E050E08E01095F1F4FFA
:105720000E94021D882379F0C201672D41E0940197
:105730000A2DCC24DD2476016894F3F80E946520BC
:105740008FEF0C94B839298130E08BE490E0289FEA
:10575000A001299F500D389F500D1124F201E40F34
:10576000F51F81E09789911180E0878BC20161E08C
:10577000472D9E012A5F3F4F0E94961F80E00C94A8
:10578000B8396981862F90E02BE430E0829FA00138
:10579000839F500D929F500D1124440D551DDA0129
:1057A00057969C919295907F916087E08C19880F15
:1057B000892B8E83C201A70196018E01095F1F4FBD
:1057C0000E94021D882379F0C201672D41E09401F7
:1057D0000A2DCC24DD2476016894F3F80E9465201C
:1057E0008FEF0C94B8390A811B812C813D81B9015E
:1057F000A8014F5F5F4F6F4F7F4F483051056105E4
:10580000710580F4E6E0F0E0EC0FFD1FE40FF51FFA
:10581000CE010D96801B910B840F951F1192E817F6
:10582000F907E1F7C20161E0472D9E012A5F3F4F72
:105830000E94961FC20169810E94B21E80E00C94F2
:10584000B839662389F4098110E02BE430E0029F27
:10585000C001039F900D129F900D1124840D951D82
:10586000FC0186898230A9F0C201672D482D20E015
:1058700030E000E00F2EF1E2CF2EF0E0DF2EF0E07E
:10588000EF2EF8E0FF2EF02D0E9465208FEF0C9494
:10589000B8392BE430E0029FC001039F900D129FA6
:1058A000900D1124840D951DFC01E55AFF4F808158
:1058B0009181FFEF8F3F9F07E1F10E946A450F2E14
:1058C000FBE42F2E3324F02D029D9001039D300D1B
:1058D000129D300D1124240D351DF901E55AFF4F9D
:1058E000918380839980492D50E060E070E0C2018F
:1058F0002DED30E20F2EF0EBEF2EF1E7FF2EF0E072
:105900000F2FF0E01F2FF02DAA24BB2465010E9469
:105910007744292D30E0229DA001239D500D329D1A
:10592000500D1124440D551DFA01E55AFF4F918386
:1059300080836981262F30E08BE490E0289FA001CE
:10594000299F500D389F500D1124F201E40FF51FCF
:10595000248C358CA68CC201AE014E5F5F4F0E9435
:10596000311FCA80DB80EC80FD80C114D104E104CA
:10597000F104D9F5298130E00BE410E0209FC0014B
:10598000219F900D309F900D1124840D951D0F2E99
:10599000FBE5CF2EDD24F02DC80ED91ED6018D914A
:1059A0009C910E946A45F60191838083298130E0B1
:1059B000209FC001219F900D309F900D1124840DD8
:1059C000951D21E0DC0156962C93835A9F4FDC01F4
:1059D000ED91FC911197309711F40C949D39C2010F
:1059E000662D099580E00C94B839B8E0CB16D10447
:1059F000E104F10478F16981862F90E02BE430E036
:105A0000829FA001839F500D929F500D1124440D41
:105A1000551DFA0187898295807F8E83C20127E018
:105A200030E040E050E08E01095F1F4F0E94021DF0
:105A3000882309F460C0C201672D482D91010A2D09
:105A4000CC24DD2476016894F3F80E9465208FEF62
:105A50000C94B8396981862F90E02BE430E0829F66
:105A6000A001839F500D929F500D1124440D551D90
:105A7000DA0157969C919295907F916087E08C19FE
:105A8000880F892B8E83C201A70196018E01095FC1
:105A90001F4F0E94021D882379F0C201672D482DF7
:105AA00091010A2DCC24DD2476016894F3F80E943C
:105AB00065208FEF0C94B8390A811B812C813D81C0
:105AC000B901A8014F5F5F4F6F4F7F4F48305105BD
:105AD0006105710580F4E6E0F0E0EC0FFD1FE40FD6
