:100000000C944A000C9467000C9467000C946700F1
:100010000C9467000C9467000C9467000C94814565
:100020000C9467000C9467000C9467000C946700B4
:100030000C9467000C9467000C9467000C946700A4
:100040000C9415450C9467000C9469010C94D00134
:100050000C9467000C9467000C9467000C94670084
:100060000C9467000C9467000C9467000C94670074
:100070000C9467000C942C020C9467000C9467009D
:100080000C9467000C9467000C9467000C94670054
:100090000C94670011241FBECFEFD0E1DEBFCDBFAF
:1000A00016E0A0E0B1E0E2E3FFE802C005900D92A7
:1000B000A235B107D9F719E0A2E5B6E001C01D925B
:1000C000A63DB107E1F70E94B5450C9497470C9403
:1000D0000000BC01569855985E9A5D9A81E0809325
:1000E000D80081E0653F780708F044C088EE93E0CF
:1000F0000E940D476150660F6093E20088E0809394
:10010000E3008FE18093E40080E0982F9295907F48
:100110009093ED00EEEEF0E01192E83FF105E1F78B
:100120001092FA001092FA001092FA001092FA005F
:100130001092FA001092FA001092FA001092FA004F
:100140008D3028F49091EF00906C9093EF008F5FCA
:100150008F30D9F680EB8093DB008FE78093DF0050
:100160008FEF8093DE008091D80082608093D8006A
:1001700081E0089580E00895FB0180ED8093ED001B
:100180008091EF00807C51F080EE8093ED008091B3
:10019000EF00807C09F045C08EE001C08DE08295C3
:1001A000807F8093ED0080818695869586959181EC
:1001B0009295990F907E890F8093F30080818295AC
:1001C000880F807E8093F2008091EF008F7E809375
:1001D000EF008281882329F08091F0008460809371
:1001E000F0008091EF009381892B8093EF0080E0F5
:1001F00009C0DF01A80FB11D14969C91149790932C
:10020000FA008F5F93818917A0F38091EF008F73BD
:100210008093EF008091EF0080648093EF0081E095
:10022000089580E00895FC0180915206882309F426
:1002300048C080E0982F9295907F9093ED00909128
:10024000EF00907C41F580915206815080935206D8
:100250008091F30082958695877081839091F2005A
:100260008091F300880F880F880F9295969597706C
:10027000890F80838091F00090E084709070959554
:1002800087959595879582832091EF002F70238322
:1002900080E090E00DC08F5F8D3061F614C030912A
:1002A000FA00DF01A80FB91F14963C93149701962A
:1002B0008217A8F38091EF00806C8093EF0081E0BB
:1002C000089580E008951092520680E0089580E03D
:1002D00008951F920F920FB60F9211242F938F93B0
:1002E0009F932091ED008091DA0087FF42C08091BA
:1002F000E1008076A1F180ED8093ED008091EE0029
:10030000882399F580EE8093ED008091EE0088239C
:1003100081F12BC0982F9295907F9093ED00909152
:10032000EE0095FF0DC01092EE009091EF009F73CC
:100330009093EF00909152069F5F909352060BC0EE
:100340009091EE009F7D39F01092EE009091EF00B9
:10035000906C9093EF008F5F8D3011F40AC080E0B5
:100360009091DA0097FDD6CF04C01092EE00109263
:10037000EF002093ED008091DA0086FF04C08091A9
:10038000DA00806403C08091DA008F618093DA0024
:100390009F918F912F910F900FBE0F901F901895E6
:1003A0001F920F920FB60F9211248F93EF93FF932A
:1003B000EAEDF0E0808180628083FF91EF918F9180
:1003C0000F900FBE0F901F90189510929B001092E7
:1003D0009A0083E08093910084E0809371000895F7
:1003E000AB01BC01EAE9F0E080819181840F951FA7
:1003F0009183808308950F931F930091940010912F
:10040000950020E030E08091000190910101A091E1
:100410000201B091030180179107A207B30728F4E6
:10042000081B190B2A0B3B0B12C0081719072A07C8
:100430003B0748F4AC01BD01401B510B620B730B31
:100440008A019B0104C00FEF1FEF20E030E0B801EC
:10045000C9011F910F9108951F920F920FB60F922D
:1004600011242F933F934F935F936F937F938F93B9
:100470009F93AF93BF93EF93FF93809194009091DC
:100480009500A0E0B0E08093000190930101A0935B
:100490000201B09303010E94253AFF91EF91BF91B1
:1004A000AF919F918F917F916F915F914F913F910C
:1004B0002F910F900FBE0F901F901895FF920F93E2
:1004C0001F93CF93DF9300D000D000D0CDB7DEB71D
:1004D0008C01F62EFC01E656FE4F0190F081E02DD6
:1004E00082E29FE1BE016D5F7F4FAE014F5F5F4FC4
:1004F0000995FC01D801A256BE4F8D939C938B8128
:100500009C81AD81BE810097A105B10569F582810D
:100510008F1550F12F2D30E083E0220F331F8A9585
:10052000E1F70190F081E02DE20FF31F82819381CA
:10053000A481B5810097A105B105B1F0D801A056FD
:10054000BE4F86819781049611969C938E93F801F5
:10055000EE55FE4F1082118212821382F801EA5585
:10056000FE4F108281E001C080E026960FB6F8941D
:10057000DEBF0FBECDBFDF91CF911F910F91FF90D6
:100580000895CF92DF92EF92FF920F931F93CF9334
:10059000DF938C017B01FC01E256FE4F0190F0815C
:1005A000E02D309709F483C08281841708F47FC05E
:1005B00050E023E0440F551F2A95E1F70190F081A8
:1005C000E02DE40FF51FA681B7810D90BC91A02D01
:1005D0004D915D916D917C911397E801C056DE4F6E
:1005E0002881398187E0C82ED12CC20ED31E82818A
:1005F00093818A0F9B1FC816D90608F058C092EA4B
:10060000C92E91E0D92EC00ED11EF60180819181B4
:10061000A281B38184179507A607B70708F047C0E2
:10062000D9018D919C91F70191838083E881F981B3
:10063000CF010296998388838281D70112968C9389
:10064000CF0103969983888383819481A581B681A4
:10065000F70183839483A583B68388819981049667
:1006600090878783F801E555FE4F91838083D701FA
:1006700013964D915D916D917C911697F801E95516
:10068000FE4F4083518362837383840F951F998348
:100690008883F60180819181A281B3810196A11D99
:1006A000B11D80839183A283B38381E001C080E088
:1006B000DF91CF911F910F91FF90EF90DF90CF903E
:1006C0000895CF92EF92FF920F931F93CF93DF93F2
:1006D000CDB7DEB729970FB6F894DEBF0FBECDBFFA
:1006E0008C01F62EBE016F5F7F4F4F2D0E94C1021D
:1006F000882381F029813A81C8016F2DA9012B81BE
:1007000000E07CE1E72E74E0F72ECC240E94213338
:1007100081E001C080E029960FB6F894DEBF0FBEDD
:10072000CDBFDF91CF911F910F91FF90EF90CF90B0
:100730000895FF920F931F93CF93DF93EC01F62E52
:100740008C010A551E4FF80180818823E9F4CE01FF
:100750000E945E02882331F0CE016F2D0E9461035A
:10076000882369F4CE016F2D41E00E94F30ACF0D7A
:10077000D11DC158DF4F85E0888381E006C081E04C
:10078000F801808382E001C080E0DF91CF911F916A
:100790000F91FF9008958F929F92AF92BF92CF9248
:1007A000DF92EF92FF920F931F93CF93DF93CDB71A
:1007B000DEB729970FB6F894DEBF0FBECDBF5C0140
:1007C000D62EBE016F5F7F4F4D2D0E94C102882340
:1007D000F9F000D049815A81EC80FF2400E010E05C
:1007E000E885F985ADB7BEB711961C9211971296A0
:1007F0001C92C5016D2D2B81CC245F013CE1832E21
:1008000034E0932E0E947F310F900F9081E001C061
:1008100080E029960FB6F894DEBF0FBECDBFDF9102
:10082000CF911F910F91FF90EF90DF90CF90BF90ED
:10083000AF909F908F900895AF92BF92DF92EF920A
:10084000FF920F931F93CF93DF93CDB7DEB72C9713
:100850000FB6F894DEBF0FBECDBF7C01D62E198631
:100860001A861B861C8684E090E0A0E0B0E08983B5
:100870009A83AB83BC8387010A551E4FF8018081A0
:10088000813009F085C045E0A42EB12CAC0EBD1E10
:10089000C701A5019E012F5F3F4F8E01075F1F4FCC
:1008A0000E94BB33813009F0B9C0F701E955FE4F12
:1008B00049815A816B817C8180819181A281B38140
:1008C000481759076A077B0709F04FC00FC0C501D9
:1008D000840F951FF801A081B181A40FB51FFC0101
:1008E00090818C91981731F020E004C021E08701BD
:1008F00005551E4F89819A81AB81BC81AC01BD0138
:10090000415050406040704049835A836B837C83E0
:100910000097A105B105D9F6222339F1C7016D2D44
:100920000E946103882309F080C0C7016D2D41E05A
:100930000E94F30AF701ED0DF11DE158FF4F85E02C
:10094000808300E0F701E00FF11DE158FF4F808147
:10095000882339F4C701602F0E949903823009F47B
:1009600064C00F5F003871F743C0C7016D2D0E944E
:100970005E02882309F452C0C7016D2D0E94CB038B
:10098000882309F44BC0F701EA55FE4F82E04CC0C2
:10099000823099F5C701AE01475F5F4F0E949034E6
:1009A0008130E1F5C7016D2D0E94CB038823E9F565
:1009B000F8011082C7016D2D41E00E94F30AF70192
:1009C000ED0DF11DE158FF4F85E0808300E0F70158
:1009D000E00FF11DE158FF4F8081882331F4C701FA
:1009E000602F0E949903823001F10F5F003879F780
:1009F000C70165E00E94D53518C08330B1F4C70146
:100A0000AE01475F5F4F0E949034813039F4C701D7
:100A10006D2D41E80E94F30AF8011082F701ED0DF7
:100A2000F11DE158FF4F8FE080832C960FB6F894AC
:100A3000DEBF0FBECDBFDF91CF911F910F91FF9011
:100A4000EF90DF90BF90AF9008958F929F92AF92FA
:100A5000BF92CF92EF92FF920F931F93CF93DF93AA
:100A600000D000D0CDB7DEB7262F43E751E666E7CA
:100A700075E649835A836B837C8300D0EDB7FEB75C
:100A800011821282622F40E150E121E0A4E0EA2EBF
:100A9000F12C012D112DCC245E010894A11CB11C58
:100AA000BCE18B2EB4E09B2E0E947F310F900F9003
:100AB0000F900F900F900F90DF91CF911F910F919A
:100AC000FF90EF90CF90BF90AF909F908F90089540
:100AD000CF93DF93FC01E155FE4F0190F081E02DB3
:100AE0002081222391F01BC0822F90E0880F991F54
:100AF000880F991FED91FC911197E80FF91F108253
:100B00001182128213822F5F07C020E0EC01C255D0
:100B1000DE4FDC01AF54BE4F8881281728F360E018
:100B200070E0CB01DF91CF910895CF93DF93EC017B
:100B300063E070E140E028E635E00E941F0EC155F9
:100B4000DE4FE881F9811082DF91CF9108950895F9
:100B5000EF92FF920F93CF93DF93CDB7DEB72C9731
:100B60000FB6F894DEBF0FBECDBF7C01FC01EB5485
:100B7000FE4F0190F081E02D808191819A838983DD
:100B80001B826D837E834F832115310539F41886CE
:100B900019861A861B861C8605E00AC0063008F0F6
:100BA00005E0CE010896B901402F50E00E946B4746
:100BB0000D5F0C83F701E856FE4F80819181BE01E5
:100BC0006F5F7F4F0E94BC002C960FB6F894DEBF7B
:100BD0000FBECDBFDF91CF910F91FF90EF900895A1
:100BE000CF92DF92EF92FF920F931F93CF93DF93F9
:100BF000EC017B01542F6901DC01BC0120E030E0F5
:100C0000422FFB01E954FE4F808191818E159F0593
:100C100081F4F901EE0FFF1FEE0FFF1FEC0FFD1F18
:100C2000E654FE4F8081882309F0A8C081E08083CC
:100C300014C02F5F3F4F6C5F7F4F2830310501F7A5
:100C4000CE0140E0FC01E654FE4F2081222329F032
:100C50004F5F04964830B1F793C0842F90E0880F1F
:100C6000991F880F991F8C0F9D1FFC01E954FE4F9F
:100C7000F182E082FC01E754FE4F508386549E4F80
:100C800021E0FC012083FE01E355FE4F208398E024
:100C900080E0FD01E654FE4F2081213029F4FD0162
:100CA000E754FE4F2081822B91501496992389F7A7
:100CB000FE01ED54FE4F0190F081E02D8083FE0196
:100CC000E255FE4F408141508E010F541E4F1CC013
:100CD0006D917C91242F30E0F9013197EE0FFF1FC9
:100CE000EE0FFF1FE60FF71F80819181A281B38174
:100CF000F901EE0FFF1FEE0FFF1FE60FF71F8083B6
:100D00009183A283B3834150D801442309F7ED9125
:100D1000FC91C601A0E0B0E0DC0199278827A7017B
:100D200060E070E0842B952BA62BB72B80839183FA
:100D3000A283B383FE01E155FE4F0190F081E02DC7
:100D40008081DE01A255BE4F9C91891710F48F5F00
:100D50008083FE01EE59FF4F8081882389F0FE01D8
:100D6000ED54FE4F0190F081E02DCE01B70140819E
:100D700020E030E000E00E94A80503C080E001C050
:100D800081E0DF91CF911F910F91FF90EF90DF9065
:100D9000CF9008950F931F93CF93DF93EC01DB0166
:100DA000BC01AC0120E030E0FA01E954FE4F808143
:100DB00091818A179B0741F02F5F3F4F4C5F5F4F38
:100DC0002830310589F73BC0F901EE0FFF1FEE0F08
:100DD000FF1FEC0FFD1FE654FE4F8081813079F537
:100DE000108288E090E010E0FB01E654FE4F208185
:100DF000213031F4FB01E754FE4F9081192B91E033
:100E000081506C5F7F4F882379F7992399F4FE0115
:100E1000E355FE4F1082FE01EE59FF4F808188237B
:100E200049F0CE0160E070E040E020E030E000E01A
:100E30000E94A805CD54DE4FE881F9811083DF912F
:100E4000CF911F910F910895DB0113962C91139769
:100E50002830A9F4FC01E952FE4F6C916F7715968A
:100E60003C91159720E014964C91149750E0422B3A
:100E7000532B0190F081E02D16962C910995089541
:100E80000895CF92DF92EF92FF929A01220F331FC3
:100E9000220F331FFC01EB58FF4F0190F081E02D32
:100EA000E20FF31FC280440F551FFC01E958FF4FAA
:100EB0000190F081E02DE40FF51F2FEF3FEF31831C
:100EC0002083FC01EC0DF11DE158FF4F21E0208350
:100ED000FC01E358FF4F0190F081E02D6C2D099546
:100EE000FF90EF90DF90CF900895CF92DF92EF9236
:100EF000FF920F931F93CF93DF938C01FC01EB5F65
:100F0000FE4F0190F081E02D80819181009709F4DE
:100F10003FC0C0E0E3E0CE2EE1E0DE2EC00ED11EE9
:100F2000D1E0EC2EFF24C8018E0D9F1DFC01E1587D
:100F3000FF4F20812F3041F1D801ED91FC911197A5
:100F40002081C21709F1FC01E75FFE4F80818823F1
:100F500079F4D601ED91FC911197309719F0C80101
:100F60006C2F0995F801EE0DFF1DE158FF4FD0835E
:100F7000F801EE0DFF1DE75FFE4F808181508083F9
:100F8000C8016C2F0E94170BCF5FC03851F609C003
:100F9000E801C150DF4F888199810E94053A998309
:100FA0008883DF91CF911F910F91FF90EF90DF9099
:100FB000CF9008950F931F93CF93DF93CDB7DEB7F4
:100FC0002C970FB6F894DEBF0FBECDBFFC01E758DB
:100FD000FF4F0190F081E02D2081318121153105F5
:100FE000E1F0DC01ED91FC91208130E02050394F9F
:100FF0003A83298321E02C831B82FC01E15AFF4FB5
:1010000020812D8388569E4FFC0180819181BE01F5
:101010006F5F7F4F0E94BC000BC08C0105581F4FB3
:10102000D8018D919C910E94053AF80191838083AB
:101030002C960FB6F894DEBF0FBECDBFDF91CF91D7
:101040001F910F91089567FD07C0860F911D81586C
:101050009F4FFC01808108958FE008952F923F9269
:101060004F925F926F927F928F929F92AF92BF92B8
:10107000CF92DF92EF92FF920F931F93CF93DF9364
:10108000CDB7DEB764970FB6F894DEBF0FBECDBF05
:101090004C01FB0160808FE768222281213059F5E5
:1010A000D401ED91FC9111978081681609F0C7C0B9
:1010B000862D90E08050994F9A8389832C831B82E0
:1010C000F401E15AFF4F80818D83F401E956FE4F10
:1010D0009081992321F080688D83108201C0208344
:1010E000F401E856FE4F80819181BE016F5F7F4F12
:1010F0000E94BC00A4C014811F77A62CBB24F4015D
:10110000E95FFE4F0190F081E02D80817401EA0CCF
:10111000FB1CF701E75FFE4F8083BFE7CB2ED12C8E
:10112000CE0CDF1CF6018081811761F0F401EB56D3
:10113000FE4F0190F081E02DC401662D412F0995ED
:10114000D6011C93F701E158FF4F8081882349F4B1
:10115000F401ED56FE4F0190F081E02DC401662DA3
:101160000995F401EA0DFB1DE158FF4F80818F3096
:1011700009F04CC064C0272D30E0C901880F991FC9
:10118000880F991FAB89BC89ED91FC911197E80FED
:10119000F91F20803180428053806414A9F57901C1
:1011A000EE0CFF1CAF85B889ED91FC91EE0DFF1D93
:1011B000808191810E94053AEF85F8890190F08144
:1011C000E02DEE0DFF1DFE87ED87A72CBB24CC2460
:1011D000DD24C201B101807090702DE730E040E065
:1011E00050E00E94EE467B018C01C401B601A501CE
:1011F00021E437E0AA24BB2465010E943C39AD8577
:10120000BE8511969C938E93739410C07724F4013D
:10121000ED58FF4FFA8BE98BC4018B589F4F9C8B85
:101220008B8BD401A958BF4FB88BAF87A989BA89D6
:10123000ED91FC9111978081781608F49CCF64960B
:101240000FB6F894DEBF0FBECDBFDF91CF911F91D7
:101250000F91FF90EF90DF90CF90BF90AF909F9055
:101260008F907F906F905F904F903F902F90089558
:101270002F923F924F925F926F927F929F92AF9286
:10128000BF92CF92DF92EF92FF920F931F93CF9373
:10129000DF93CDB7DEB728970FB6F894DEBF0FBE49
:1012A000CDBF98878F8367E170E140E02FEA3AE095
:1012B0000E941F0EEF81F885E956FE4F1082992497
:1012C0008F8198858D589F4F9A838983AF81B88588
:1012D000AB58BF4FBC83AB83EF81F885E958FF4F14
:1012E000FE83ED833EC0292D30E0C901880F991F90
:1012F000880F991FAB81BC81ED91FC911197E80F8C
:10130000F91F80819181AC0160E070E041155105C9
:101310006105710529F1C901880F991FED81FE81D1
:1013200020803180280E391E492C552466247724CC
:10133000CB01BA012DE730E040E050E00E94EE46DC
:101340007B018C018F819885B301A20121E437E0F4
:10135000AA24BB2465010E943C39D1018D939C9342
:101360009394A981BA81ED91FC911197808198168F
:1013700008F4B9CFEF81F885E758FF4F0190F0816D
:10138000E02D6081718161157105D9F080E090E0F8
:101390002DE730E040E050E00E94EE465B016C013A
:1013A0008F81988540E050E0BA012AED37E0860150
:1013B00075010E943C39EF81F885E558FF4F918314
:1013C000808328960FB6F894DEBF0FBECDBFDF91A5
:1013D000CF911F910F91FF90EF90DF90CF90BF9032
:1013E000AF909F907F906F905F904F903F902F9025
:1013F00008958F929F92AF92BF92CF92DF92EF9219
:10140000FF920F931F93CF93DF93EC016CE070E199
:1014100040E02BEC3AE00E941F0ECE016DE070E13F
:1014200040E02BEC3AE00E941F0EFE01EB5FFE4F06
:101430000190F081E02D608171816115710509F4E1
:1014400041C087E0882E81E0982E8C0E9D1ED4012D
:10145000ED91FC91119780818823A1F180E090E0CB
:101460002DE730E040E050E00E94EE465B016C0169
:10147000CE0140E050E0BA0125E737E08601750172
:101480000E943C39FE01E150FF4F9183808320E0B0
:10149000D401CE01820F911DFC01E158FF4F308134
:1014A0003F3069F0E881F9813081231741F0ED91F7
:1014B000FC9111973081875F9E4FFC0130832F5F35
:1014C000203839F7DF91CF911F910F91FF90EF9066
:1014D000DF90CF90BF90AF909F908F900895AF9284
:1014E000BF92CF92DF92EF92FF921F93CF93DF9341
:1014F0007C0110E033E7C32ED12CC80ED91E47E77C
:10150000A42EB12CA80EB91E10C0812F90E0880F18
:10151000991FD501CD91DC91C80FD91F8881998180
:101520000E94053A998388831F5FD601ED91FC9153
:1015300011978081181748F3E701C558DF4F88815C
:1015400099810E94053A99838883DF91CF911F91F9
:10155000FF90EF90DF90CF90BF90AF900895CF9322
:10156000DF93EC010E946F0ACE010E94380960E00F
:1015700070E0CB01DF91CF910895CF93DF93EC0121
:10158000C150DF4F888199810E94053A99838883F1
:10159000DF91CF910895CF93DF93EC010E94BD0AB4
:1015A000CE010E94F90960E070E0CB01DF91CF919C
:1015B0000895CF93DF93EC010E943809CE010E9479
:1015C000F909DF91CF910895CF93DF93EC010E9449
:1015D0006F0ACE010E94BD0ADF91CF910895089550
:1015E000089508950895CF93DF93CDB7DEB72C9774
:1015F0000FB6F894DEBF0FBECDBF1A8219821B82D0
:1016000022E02C834D836E83FC01E856FE4F8081DF
:101610009181BE016F5F7F4F0E94BC002C960FB678
:10162000F894DEBF0FBECDBFDF91CF910895CF9369
:10163000DF93CDB7DEB72C970FB6F894DEBF0FBEA1
:10164000CDBF70E077607A83698321E02B831C82B1
:10165000FC01E856FE4F80819181BE016F5F7F4F94
:101660000E94BC002C960FB6F894DEBF0FBECDBF13
:10167000DF91CF910895FC01E60FF11DE158FF4F76
:101680002FE02083662359F420E03FE0FC01E20FC5
:10169000F11DE158FF4F30832F5F2038B9F70E94CA
:1016A000170B08950F931F93CF93DF930F92CDB72E
:1016B000DEB78C01FB01DC01A15ABF4F8C918F3743
:1016C00029F0853019F0843009F056C095819923AE
:1016D00041F0D8012D913C91D9012C91921709F03C
:1016E0004BC094819038D9F0913830F4913049F062
:1016F000923009F041C00CC09138B9F09238E1F550
:101700001FC08F3711F08430B9F5C80165E032C0D1
:101710008F3711F0853081F5C80164E02BC084500B
:10172000823050F5C8016FE725C0F801E159FF4F3D
:101730000190F081E02D3097D9F0C801099518C0CB
:10174000C8010E946F36682FF801EF58FF4F0190D3
:10175000F081E02D309721F0C801698309956981F6
:10176000D801ED91FC918FEF8083C8010E947536FE
:10177000C80160E00E94D5350F90DF91CF911F9195
:101780000F910895CF93DF93CDB7DEB72C970FB6A7
:10179000F894DEBF0FBECDBFDC01ED91FC9120813E
:1017A00030E037603A8329831B8221E02C831D823D
:1017B00088569E4FFC0180819181BE016F5F7F4FF3
:1017C0000E94BC002C960FB6F894DEBF0FBECDBFB2
:1017D000DF91CF91089580E008954F925F926F92CC
:1017E0007F928F929F92AF92BF92CF92DF92EF92B1
:1017F000FF920F931F93CF93DF9300D000D000D0C0
:10180000CDB7DEB7D42E29013801FC01E656FE4FD4
:101810000190F081E02DCB01BE016D5F7F4FAE01E5
:101820004F5F5F4F09958C018B809C80AD80BE809F
:1018300081149104A104B10409F0A6C0DC01129640
:101840008C911297D81608F08AC0CC2079F08D2D93
:1018500090E053E0880F991F5A95E1F7ED91FC91C4
:101860001197E80FF91F808180FD81C04114510458
:1018700009F485C02D2D30E043E0220F331F4A9537
:10188000E1F7F801C080D180C20ED31EF60182813B
:101890009381A481B581F30140815181628173817B
:1018A000481759076A077B0760F480839183A283F6
:1018B000B38335E0832E912C34E0A32E35E0B32E94
:1018C00063C0D60111968C91F7018083D801ED9108
:1018D000FC911197E20FF31FC280D380E480F58062
:1018E000893061F066817781C201A6010E946B4751
:1018F000F301C082D182E282F38246C08681978161
:10190000D3014D915D916D917C91139741155105D6
:101910006105710511F4B701A601480F591FD201E5
:10192000FC0102C02D9331962081222319F0E41787
:10193000F507C0F39F01281B390BA901662757FD46
:101940006095762FD3014D935D936D937C931397A0
:101950004C155D056E057F05B8F4108215C021E1B8
:10196000822E912C29E0A22E26E0B22E0DC091E00D
:10197000892E912C91E0A92E96E0B92E05C0812CDC
:10198000912CA12C88E0B82EB401C50126960FB683
:10199000F894DEBF0FBECDBFDF91CF911F910F91A5
:1019A000FF90EF90DF90CF90BF90AF909F908F907F
:1019B0007F906F905F904F9008952F923F924F923B
:1019C0005F926F927F928F929F92AF92BF92CF92CF
:1019D000DF92EF92FF920F931F93CF93DF93CDB7D8
:1019E000DEB72D970FB6F894DEBF0FBECDBF988738
:1019F0008F837C876B87742E632E1A8709871E2D31
:101A0000FC01E656FE4F0190F081E02DCB01BE01B6
:101A10006D5F7F4FAE014F5F5F4F2D8709952C01A2
:101A2000CB80DC80ED80FE802D85C114D104E104E3
:101A3000F10409F0DDC0DC0112968C911297781642
:101A400008F0C4C0112381F0872D90E003E0880FD7
:101A5000991F0A95E1F7ED91FC911197E80FF91F95
:101A60008081823009F4BAC0272C332413E0220C81
:101A7000331C1A95E1F7D201ED91FC91E20DF31DB3
:101A8000118182809380A480B580E985FA85808168
:101A90009181A281B3810097A105B10571F08815EC
:101AA0009905AA05BB0549F0193009F081C08815D0
:101AB0009905AA05BB0508F07BC0AF81B885529691
:101AC000ED91FC915397812F622F762D2D870995EB
:101AD0006B017C016B837C838D839E832D856115D7
:101AE00071058105910509F083C0D201ED91FC914A
:101AF000E20DF31DA985BA854D915C918681978190
:101B0000622F762D0E946B471930B9F4E985FA856A
:101B100080819181A281B38188159905AA05BB05B1
:101B200060F4F20120813181220D331DF9012681FB
:101B30003781280F391FD9011C92E985FA858082E7
:101B40009182A282B38289819A810097D1F0E72D98
:101B5000F0E0EE0FFF1FE80FF91F0190F081E02D7C
:101B6000309779F08F819885B201472D0995DC0176
:101B7000CB018B839C83AD83BE830097A105B10508
:101B8000A9F5D201ED91FC911197E20DF31D808131
:101B900082FF2EC0EF81F885E456FE4F0190F08160
:101BA000E02D8F8198856B857C85472D099520C018
:101BB000E985FA8580829182A282B382A0E1CA2E51
:101BC000D12CA7E0EA2EA6E0FA2E12C071E1C72EB2
:101BD000D12C79E0E72E76E0F72E0AC062E0C62E1F
:101BE000D12C61E0E62E66E0F62E02C06C017D018C
:101BF000B601C7012D960FB6F894DEBF0FBECDBF5C
:101C0000DF91CF911F910F91FF90EF90DF90CF90D8
:101C1000BF90AF909F908F907F906F905F904F900C
:101C20003F902F900895DB01BA01A901FC01E6560F
:101C3000FE4F0190F081E02DCD0109950895CF92DE
:101C4000DF92FF920F931F93CF93DF9300D000D0CA
:101C500000D0CDB7DEB7F42E6901FC01E656FE4F89
:101C60000190F081E02DCB01BE016D5F7F4FAE0191
:101C70004F5F5F4F09950B811C812D813E810115BE
:101C800011052105310589F449815A814115510514
:101C900061F0FC018281F81640F4EF2DF0E0EE0FC8
:101CA000FF1FE40FF51FD182C082B801C90126963B
:101CB0000FB6F894DEBF0FBECDBFDF91CF911F915D
:101CC0000F91FF90DF90CF9008950895CF93DF9309
:101CD000EC01CA0164E0880F991F6A95E1F7840F4F
:101CE000951FEC81FD81E80FF91F3596D9018CE035
:101CF0000D9001928150E1F7C856DE4F888199819D
:101D0000B9010E94BC00DF91CF910895CF93DF937A
:101D1000CDB7DEB72C970FB6F894DEBF0FBECDBFA0
:101D2000DC011A96ED91FC911B97848195811C969C
:101D3000ED91FC911D9724813581FD01EB59FF4FF9
:101D40004081442389F1009789F144E160307407B0
:101D500068F180509441860F971F2817390730F19A
:101D60009C01220F331F220F331F280F391F129699
:101D7000ED91FC911397E20FF31F0190F081E02D9C
:101D80000684F785E02D808191819A83898381E0A3
:101D90008B831C82A856BE4F8D919C91BE016F5FB4
:101DA0007F4F0E94BC0003C080E001C08FEF2C96E3
:101DB0000FB6F894DEBF0FBECDBFDF91CF9108956F
:101DC0008F929F92AF92BF92CF92DF92EF92FF924B
:101DD0000F931F93CF93DF93E82F5B01542FF22FC4
:101DE000D8014E2DC8E0DC2E0FEF10E0D8E08D2E8C
:101DF000912C59C0842F851BE501288130E01816ED
:101E00004CF402C0220F331F8A95E2F7322F2D2D9A
:101E1000241B0EC0992787FD9095909581959F4F23
:101E200002C0359527958A95E2F7322F2D2D251B77
:101E3000E21708F42E2F642F70E0CB01820F911D62
:101E4000780102C0EE0CFF1C8A95E2F7C401861BE4
:101E5000970BB80102C0759567958A95E2F7CB019B
:101E60008E29982F909593233C913823932B9C9304
:101E7000520F583050F0FF2319F08FEF9FEF02C040
:101E800081E090E0A80EB91E50E0420F483050F0BB
:101E9000CC2019F08FEF9FEF02C081E090E0A80FF7
:101EA000B91F40E0E21BEE2309F0A4CFDF91CF91F0
:101EB0001F910F91FF90EF90DF90CF90BF90AF9068
:101EC0009F908F9008952F923F924F925F926F92C2
:101ED0007F928F929F92AF92BF92CF92DF92EF92BA
:101EE000FF920F931F93CF93DF93CDB7DEB76B971E
:101EF0000FB6F894DEBF0FBECDBF9D8B8C8B5B8B76
:101F00004A8BDC0112962D913C911397FC01A2851E
:101F1000B38570E01A968D919C911B97860F971F41
:101F20004C01880C991C880C991C880E991E820EF5
:101F3000931EF40140815181FA010680F781E02D62
:101F4000FB8FEA8F18968D919C911997860F971F9A
:101F5000FC01EE0FFF1FEE0FFF1FE80FF91FE20F4E
:101F6000F31F0190F081E02D0684F785E02D80813C
:101F700091819770AA89BB8911969C938E93129632
:101F80001C92442455243201DD2418E0B12E06E0D1
:101F9000202E312C2C0E3D1EF1018B2D11928A9595
:101FA000E9F78D2D90E0019623E0880F991F2A957F
:101FB000E1F7D401ED91FC91E80FF91F0680F7815C
:101FC000E02D4081518162817381DB01CA019070F3
:101FD000A070B0708E879F87A88BB98B0097A105E2
:101FE000B10509F462C0840D951DA61DB71D8E8B29
:101FF0009F8BA88FB98F81349105A105B10508F099
:1020000054C08E859F85A889B9890197A109B10916
:1020100033E0B695A795979587953A95D1F70196B0
:10202000A11DB11D8A839B83AC83BD83AB01662751
:10203000772780819181A281B381092F1A2F2B2FBD
:1020400033278C899D89BA01402F91018E010E5F43
:102050001F4F7E010894E11CF11CCC24AA24A394F8
:102060000E94ED0BDC01CB010097A105B105C1F584
:10207000D301C20103E0B695A795979587950A9578
:10208000D1F78C010C5F1F4FAA89BB890A0F1B1F58
:1020900027E0E22EE4208E85B10140E020E00E949E
:1020A000E00E4E885F88688C798CD394EA8DFB8D26
:1020B0008081D81608F470CF08944108510861084F
:1020C000710813E076946794579447941A95D1F762
:1020D0004394AA89BB8913964C92139780E001C060
:1020E0008FEF6B960FB6F894DEBF0FBECDBFDF91BA
:1020F000CF911F910F91FF90EF90DF90CF90BF9005
:10210000AF909F908F907F906F905F904F903F9097
:102110002F9008952F923F924F925F926F927F92ED
:102120008F929F92AF92BF92CF92DF92EF92FF92E7
:102130000F931F93CF93DF93CDB7DEB762970FB6A0
:10214000F894DEBF0FBECDBF3C01262EFC01EB593B
:10215000FF4F8081882309F4FEC0E62EFF249701FB
:10216000A4E0220F331FAA95E1F72E0D3F1D3E87F5
:102170002D87D3011496ED91FC911597E20FF31F73
:10218000808180FDE8C01A96ED91FC911B97C08478
:10219000D184AE014F5F5F4F8CE0FA0111928A95B6
:1021A000E9F7C3010E94630F882309F0D4C0D3016B
:1021B00014960D911C911597ED85FE850E0F1F1F2E
:1021C000D80115968D919C91169729813A81821795
:1021D000930791F418969C9118978C81981761F445
:1021E000C8010996BE016B5F7F4F48E050E00E9436
:1021F0005E47009709F4AFC0C7018C0D9D1D9C017F
:10220000220F331F220F331F280F391FD3011296BD
:10221000ED91FC911397E20FF31FA081B1819E967F
:10222000ED91FC919F97C080D180EE24FF245E96B3
:10223000ED91FC915F97808191819C0140E050E09D
:102240002F87388B498B5A8B332444245524C1144F
:10225000D104E104F10439F1D80111968D919C91DA
:1022600012970E94053AF301848095802D853E8562
:10227000820E931EC701B6012DE730E040E050E02A
:102280000E94EE467B018C01C301B201A10121EE47
:1022900031E1AA24BB2465010E943C39D401129685
:1022A0009C938E9311972F85388949895A892115D6
:1022B00031054105510509F444C0D3011496ED914F
:1022C000FC9115972D853E85E20FF31F8381948144
:1022D0000E94053AD30114968D909C901597ED8538
:1022E000FE858E0E9F1E6F85788989899A8924E6DE
:1022F00030E040E050E00E94EE467B018C01E3E0DC
:1023000016950795F794E794EA95D1F7C301B201C2
:10231000A10125EC31E1AA24BB2465010E943C39CE
:10232000D40114969C938E931397D3011496ED9138
:10233000FC9115972D853E85E20FF31F808181600A
:102340008083C301B201A1019E012F5F3F4F0E9414
:10235000660E81E001C080E062960FB6F894DEBFA1
:102360000FBECDBFDF91CF911F910F91FF90EF90E6
:10237000DF90CF90BF90AF909F908F907F906F90A5
:102380005F904F903F902F900895DC019A01CA0111
:1023900054E0880F991F5A95E1F7820F931F149606
:1023A000ED91FC911597E80FF91F8FEF9FEF948344
:1023B000838380818E7F8083CD01642F0E948A1069
:1023C0000895DC01CA0164E0880F991F6A95E1F75E
:1023D000840F951F1496ED91FC911597E80FF91F46
:1023E0008FEF9FEF9283818316821582CD01642F38
:1023F0000E948A100895DF92EF92FF920F931F932D
:10240000CF93DF937C01FC01EB59FF4F8081882340
:1024100009F453C0423008F450C0443018F045303D
:1024200009F04BC0D7011A96ED91FC911B972085BE
:102430003185C901880F991F880F991F820F931F3B
:1024400012962D913C911397280F391F621B730B25
:102450008DEC9CEC689FD02C11248D2D90E08C018C
:10246000D4E0000F111FDA95E1F7080F191F149639
:10247000CD91DC911597C00FD11F89819A810E945F
:10248000053A9A838983F701C481D581C00FD11F92
:102490008B819C810E94053A9C838B83D701149683
:1024A000ED91FC911597E00FF11F10824D2D50E03A
:1024B00060E070E0C7010E94E11160E070E0CB01D4
:1024C000DF91CF911F910F91FF90EF90DF900895D2
:1024D0002F923F924F925F926F927F928F929F9234
:1024E000AF92BF92CF92DF92EF92FF920F931F9322
:1024F000CF93DF93CDB7DEB76C970FB6F894DEBFFE
:102500000FBECDBF1C017C8B6B8BDB0112968C91B7
:102510001297882309F049C1F101E284F384D701BD
:1025200014964D915C9115970484F585E02DA48057
:10253000B5804115510509F023C10CC2F101C280DB
:10254000D380FC01EC0DFD1D0190F081E02D06848F
:10255000F785E02D80819181EB89FC892081318193
:102560008217930721F06F5F7F4F159613C1D70134
:1025700016960D90BC91A02DB88FAF8BCD01598DC3
:10258000850F911DDC01AA0FBB1FAA0FBB1FA80F4F
:10259000B91FBE8BAD8BFD01EC0DFD1D0190F081CF
:1025A000E02D268137813B8F2A8F50E0662418E08A
:1025B000912ECE0105969A8B898B82C0A989BA8902
:1025C000E92D1D92EA95E9F7D1011296ED91FC9162
:1025D00013972D893E89E20FF31F862D90E0019617
:1025E00073E0880F991F7A95E1F70190F081E02D53
:1025F000E80FF91F468057804114510409F4A9C11E
:10260000D2018C90882009F45AC0A82CBB249501D3
:10261000250F311DEB89FC89838190E063E0880FF1
:10262000991F6A95E1F7821793070CF448C0652F4C
:1026300066956695669570E06C5F7F4F6E0F7F1FA5
:10264000452F4770882D20E08E010B5F1F4FEE2431
:10265000CC245C8F0E94E00EC501019723E0959584
:1026600087952A95E1F70196AA2797FDA095BA2F9D
:1026700089839A83AB83BC83F20180819181A2819B
:10268000B3816D01EE24FF24092F1A2F2B2F33273E
:10269000C101B601402F9E012B5F3F4F8E010F5F9E
:1026A0001F4FEE24CC24C3940E94DD0CDC01CB012F
:1026B0005C8D0097A105B10509F04BC1580D6394DD
:1026C000AA8DBB8D8C91681608F478CFF101268114
:1026D00037812115310509F43AC18F89988D880F0A
:1026E000991F880F991F4F89588D840F951F02805D
:1026F000F381E02DE80FF91F0190F081E02D06A491
:10270000F7A5E02DC080D180EE24FF24C114D104B0
:10271000E104F10409F41BC1598D052F10E0000FED
:10272000111FF901E00FF11F808191810E94053A8C
:10273000D10116966D907C901797600E711E598D81
:10274000852E9924AA24BB2418964D905C90199745
:10275000C701B6012DE730E040E050E00E94EE46B0
:102760007B018C01C101B501A4019201AA24BB2403
:1027700065010E943C39D30111969C938E93E7C06A
:10278000BA01A0E0B0E08A01000F111F000F111F75
:10279000040F151FE62FE41BE98FCD01800F911F59
:1027A000A616B70608F0CACED2C0813009F0CFC055
:1027B000D1011A96ED91FC911B97608571851C964D
:1027C000ED91FC911D97008511856115710509F04A
:1027D000B8C0BDC0443039F1453009F49AC0413029
:1027E000C9F7CB01880F991F880F991F860F971F74
:1027F000D1011296ED91FC911397E80FF91F01900A
:10280000F081E02D0684F785E02D80819181EB89B0
:10281000FC89208131818217930709F48EC0C3940B
:102820006F5F7F4F90C0CB01880F991F880F991F52
:10283000860F971FD1011296ED91FC911397E80F27
:10284000F91F0190F081E02D0688F789E02D808145
:102850008D3F09F474C08C3FE1F48C2D90E09C0115
:1028600044E0220F331F4A95E1F7280F391F1496D1
:10287000ED91FC911597E20FF31F808180FF5FC0FF
:10288000A856BE4FBF016B5F7F4F8D919C911197F2
:1028900051C08E5F823008F05CC08C2D90E07C01CE
:1028A00014E0EE0CFF1C1A95E1F7E80EF91EF10199
:1028B000048115810E0D1F1DD80111968D919C91DB
:1028C00012970E94053AF80192838183D1011496F0
:1028D0000D911C9115970E0D1F1DF8018381948198
:1028E0000E94053AD80114969C938E931397D101B8
:1028F0001496ED91FC911597EE0DFF1D80818E7F52
:1029000080834C2D50E060E070E0C1010E94E11135
:102910001EC0C1016C2DAE014B5F5F4F0E94630F63
:102920008823B9F4F101E856FE4F80819181BE0100
:102930006B5F7F4F0E94BC000AC044E004C045E0CA
:1029400002C041E0CC240617170708F043CF80E00F
:1029500001C08FEF6C960FB6F894DEBF0FBECDBFEF
:10296000DF91CF911F910F91FF90EF90DF90CF906B
:10297000BF90AF909F908F907F906F905F904F909F
:102980003F902F90089508954F925F927F928F927B
:102990009F92AF92BF92CF92DF92EF92FF920F93EE
:1029A0001F93CF93DF93CDB7DEB72C970FB6F89474
:1029B000DEBF0FBECDBF6C01762EDC011A96ED9105
:1029C000FC911B97A084B1841C96ED91FC911D97FE
:1029D00040845184FC01EB59FF4F8081882309F426
:1029E000CBC0A114B10409F4C7C0FE0131968CE03C
:1029F000DF011D928A95E9F783E0FF244F01ACE0E7
:102A0000EA2EB6C0853009F4A3C08B3009F4A9C002
:102A1000833009F0B3C0C501880F991F880F991F33
:102A20008A0D9B1DD6011296ED91FC911397E80F2C
:102A3000F91F20813181D9011E96ED91FC911F97DC
:102A400080819181A281B381B7FD91C0F90146894E
:102A50005789DA018C917720A1F1882309F4A5C068
:102A6000813F08F0A2C08F2D90E09C0164E0220F0E
:102A7000331F6A95E1F7280F391FD6011496ED919F
:102A8000FC911597E20FF31F80818F5F8083FA011D
:102A90009081891709F089C01496ED91FC911597E2
:102AA000E20FF31F1082D401EE2D1D92EA95E9F793
:102AB000C6016F2DA4010E94630F882309F057C03F
:102AC00047C08E5F823008F052C029C08F2D90E041
:102AD0008C0124E0000F111F2A95E1F7080F191F40
:102AE000D60114964D915C911597400F511F4B5F85
:102AF0005F4FC6016F2D0E94630FF601248135815F
:102B0000F801E20FF31F882319F080818E7F02C045
:102B10008081816080832BC08823A9F028C08F2DFD
:102B200090E09C0104E0220F331F0A95E1F7280F83
:102B3000391FD6011496ED91FC911597E20FF31F02
:102B4000808180FD14C0C6016F2D0E948A100FC0C5
:102B50004F2D50E060E070E0C60194010E94660EC7
:102B600006C0F3940894A11CB11C83E001C08BE063
:102B70004A145B0408F046CF80E001C08FEF2C962A
:102B80000FB6F894DEBF0FBECDBFDF91CF911F917E
:102B90000F91FF90EF90DF90CF90BF90AF909F90FC
:102BA0008F907F905F904F900895FA0180818C3FC5
:102BB00009F0B2CF8BCF60E00E94C41408958F92C9
:102BC0009F92AF92BF92CF92DF92EF92FF920F93BC
:102BD0001F93CF93DF9300D000D000D0CDB7DEB7E6
:102BE0007C01DC011A96ED91FC911B970085118503
:102BF0001C96ED91FC911D9780849184011511051F
:102C000019F52CC0C701B601AE014D5F5F4F9E01A3
:102C10002F5F3F4F0E94130E8B819C81AD81BE813F
:102C20000097A105B10551F4E981FA81309731F09F
:102C3000B582A482B782A682B386A2860894C11CFC
:102C4000D11C0F5F1F4F07C0C12CB8E1DB2E8BEFEB
:102C5000A82E81E1B82E80169106A0F6C70160E08B
:102C60000E94C41426960FB6F894DEBF0FBECDBFE7
:102C7000DF91CF911F910F91FF90EF90DF90CF9058
:102C8000BF90AF909F908F9008958F929F92AF9238
:102C9000BF92CF92DF92EF92FF920F931F93CF9349
:102CA000DF937C01DC011A96ED91FC911B97A084C7
:102CB000B1841C96ED91FC911D9780849184A114A0
:102CC000B104D9F1650134C090E08C0124E0000F1B
:102CD000111F2A95E1F7080F191FF701C481D5814B
:102CE000C00FD11F89819A810E94053A9A838983F6
:102CF000D7011496CD91DC911597C00FD11F8B8110
:102D00009C810E94053A9C838B83D7011496ED9198
:102D1000FC911597E00FF11F10821496ED91FC9134
:102D20001597E00FF11F168215820894C11CD11C63
:102D30008C2D8A198C149D0438F6DF91CF911F9148
:102D40000F91FF90EF90DF90CF90BF90AF909F904A
:102D50008F900895CF92EF920F931F93CF93DF93AD
:102D600000D000D0CDB7DEB7AC0170E08BE490E0CE
:102D7000689FF001699FF00D789FF00D1124E40F1A
:102D8000F51F878D90A1A1A1B2A10097A105B10562
:102D900041F483A194A1A5A1B6A1878F90A3A1A37B
:102DA000B2A38BE490E0689F9001699F300D789FFB
:102DB000300D1124FA01E20FF31F878D90A1A1A11C
:102DC000B2A189839A83AB83BC83648D758D295DA1
:102DD0003F4F240F351FCA01468D8E010F5F1F4FD5
:102DE000EE24E394CC24C3940E94DD0C0F900F904A
:102DF0000F900F90DF91CF911F910F91EF90CF9097
:102E000008958F929F92AF92CF92EF92FF920F937D
:102E10001F93CF93DF9300D000D00F92CDB7DEB7D2
:102E2000AC0180E290E0A0E0B0E08A839B83AC83B9
:102E3000BD8370E08BE490E0689F9001699F300D46
:102E4000789F300D11244A01820E931EF401648D87
:102E5000758D295D3F4F240F351FCA01468D8E01A8
:102E60000E5F1F4F7E010894E11CF11CCC24C3941B
:102E7000AA24A3940E94ED0B8B019C01611571059E
:102E80008105910569F48A819B81AC81BD81F40142
:102E9000878F90A3A1A3B2A313A214A215A216A276
:102EA000B801C9010F900F900F900F900F90DF9114
:102EB000CF911F910F91FF90EF90CF90AF909F9087
:102EC0008F9008956F927F928F929F92AF92BF9250
:102ED000CF92DF92EF92FF920F931F93CF93DF93E6
:102EE000EC0169017A013801062F10E08BE490E0D3
:102EF000089FF001099FF00D189FF00D1124EC0FB1
:102F0000FD1F83A094A0A5A0B6A0DA01C901880D79
:102F1000991DAA1DBB1D81329105A105B105D8F5EA
:102F2000478D50A161A172A1481759076A077B0715
:102F300090F120E0AF010DC0880D991DAA1DBB1DA9
:102F4000840F951FFC0187A1F301E20FF11D80831F
:102F50002F5F822F90E0A0E0B0E08C159D05AE05BC
:102F6000BF0550F38BE490E0089FF001099FF00D3E
:102F7000189FF00D1124EC0FFD1F83A194A1A5A1B2
:102F8000B6A18C0D9D1DAE1DBF1D83A394A3A5A34B
:102F9000B6A380E001C08FEFDF91CF911F910F9119
:102FA000FF90EF90DF90CF90BF90AF909F908F9069
:102FB0007F906F9008958F929F92AF92BF92CF9221
:102FC000DF92EF92FF920F931F93CF93DF93EC0169
:102FD000862FBA01A9014801082F10E08BE490E088
:102FE000089FF001099FF00D189FF00D1124EC0FC0
:102FF000FD1FC3A0D4A0E5A0F6A0DB01CA018C0D83
:103000009D1DAE1DBF1D81329105A105B10590F535
:1030100020E05F010DC0F401E20FF11D30818C0D45
:103020009D1DAE1DBF1D8A0D9B1DFC0137A32F5F8B
:10303000822F90E0A0E0B0E084179507A607B707BD
:1030400050F38BE490E0089FF001099FF00D189F6A
:10305000F00D1124EC0FFD1F83A194A1A5A1B6A131
:10306000840F951FA61FB71F83A394A3A5A3B6A380
:1030700080E001C08FEFDF91CF911F910F91FF9002
:10308000EF90DF90CF90BF90AF909F908F9008957A
:103090002F923F924F925F926F927F928F929F9268
:1030A000AF92BF92CF92DF92EF92FF920F931F9356
:1030B000CF93DF932C01962E642E1901802E7E2C47
:1030C0008E2D8250843020F5462F50E060E070E075
:1030D000C20127EE3AE1E8EDEE2EE8EBFE2E012DDF
:1030E000112DAA24BB2465010E943C39292D30E012
:1030F0004BE450E0249FF001259FF00D349FF00D2C
:103100001124E40DF51DE55AFF4F9183808315C00E
:10311000862F90E02BE430E0829FE001839FD00D6A
:10312000929FD00D1124C40DD51DC55ADF4F888143
:1031300099810E94053A99838883892D90E02BE438
:1031400030E0829FF001839FF00D929FF00D1124DB
:10315000E40DF51D648A358E248E868E768A178A54
:10316000178E10A211A212A213A214A215A216A2C7
:10317000DF01A95BBF4F1C92DF01A85BBF4F1C9210
:10318000DF01A75BBF4F1C92DF01A65BBF4F1D9203
:103190001D921D921C921397DF01A25BBF4F1C92E0
:1031A000DF01A15BBF4F1C92DF01A05BBF4F1C92F0
:1031B000DF01AF5ABF4F1C92DF01A65ABF4F1C92CE
:1031C000E35AFF4F1182108280E0DF91CF911F916F
:1031D0000F91FF90EF90DF90CF90BF90AF909F90B6
:1031E0008F907F906F905F904F903F902F900895B9
:1031F000CF92DF92EF920F93CF93DF936C01C62FA4
:1032000040E020E030E000E0EE240E94481880E03A
:1032100090E02C2F30E04BE4C49FE0011124CC0D52
:10322000DD1DFE01E80FF91F17A2019680329105FE
:10323000C1F78BE490E0289FF001299FF00D389FA3
:10324000F00D1124EC0DFD1D158A108E118E128EBD
:10325000138EDF91CF910F91EF90DF90CF90089573
:1032600060E00E94F8180895FC018689882321F403
:10327000DA011C92658B08958FEF0895FC01868911
:10328000882379F0853869F08489861751F4858917
:10329000841739F42115310531F0F901108280E0ED
:1032A00008958FEF089580E00895FC0186898823B2
:1032B00069F08489861751F48589841739F42115BA
:1032C000310531F0F901108280E008958FEF089503
:1032D00080E008950F931F93DA0170E02BE430E053
:1032E000629FF001639FF00D729FF00D1124E80FB3
:1032F000F91F478D50A161A172A1411551056105CA
:10330000710531F41D921D921D921C9213970DC0F0
:1033100003A114A125A136A1401B510B620B730B15
:103320004D935D936D937C93139780E01F910F9164
:1033300008950F931F93DC0189019A010132110551
:103340002105310590F470E08BE490E0689FF00176
:10335000699FF00D789FF00D1124EA0FFB1F078F76
:1033600010A321A332A380E001C08FEF1F910F9122
:1033700008950F931F93CF93DF93CDB7DEB72C97AC
:103380000FB6F894DEBF0FBECDBFFC01722F532FD6
:10339000DC01A15ABF4F8C91853019F08F3709F0AD
:1033A0006AC0A285B385613021F58D919C911197FA
:1033B000009709F460C0840F911DA485B5852D91F7
:1033C0003C9111972817390708F455C09C01220F2A
:1033D000331F220F331F280F391FA281B381A20F81
:1033E000B31F0D90BC91A02D56960D90BC91A02DB1
:1033F00023C012968D919C9113970097E1F1840F51
:10340000911DA485B58512962D913C91139728178F
:10341000390788F19C01220F331F220F331F280F19
:10342000391FA281B381A20FB31F0D90BC91A02DB3
:103430001E960D90BC91A02D8D919C919A838983AD
:103440001B8288E08C83072F152FCE01059620E084
:10345000D8013D918D01DC013D93CD012F5F2830D6
:10346000B9F7E856FE4F80819181BE016F5F7F4FB3
:103470000E94BC0001C08FEF2C960FB6F894DEBFFF
:103480000FBECDBFDF91CF911F910F910895CF92C5
:10349000DF92EF92FF920F93CF93DF93CDB7DEB71A
:1034A00028970FB6F894DEBF0FBECDBF50E8598302
:1034B0002A833B830C83CD82DE82EF82F8869E01D5
:1034C0002F5F3F4F0E94B91928960FB6F894DEBFC0
:1034D0000FBECDBFDF91CF910F91FF90EF90DF90A6
:1034E000CF9008952F923F924F925F927F928F924A
:1034F0009F92AF92BF92CF92DF92EF92FF920F9383
:103500001F93CF93DF930F92CDB7DEB74C01762E8A
:10351000A42E1901B02E9E012F5F3F4F0E943E192D
:10352000882391F581E0A81609F04DC0C401698196
:103530000E94F81829C0898190E01BE4412E512C8B
:10354000849D8001859D100D949D100D1124080D02
:10355000191D055A1F4FF801808191810E94053A7B
:10356000F80191838083898190E0849DF001859D9D
:10357000F00D949DF00D1124E80DF91D85E8868B62
:10358000C08ED18EE28EF38EC4016A2D472D91013B
:103590000B2D0E94471A882311F08FEF01C080E0A5
:1035A0000F90DF91CF911F910F91FF90EF90DF90DF
:1035B000CF90BF90AF909F908F907F905F904F90F3
:1035C0003F902F900895F2E0AF16F1F6B4CF8F92AE
:1035D0009F92AF92BF92CF92DF92EF92FF920F93A2
:1035E0001F93CF93DF935C01EA01DC011A96ED9102
:1035F000FC911B97228133812115310509F4A4C068
:10360000EBE48E2E912C489DF001499DF00D589DC4
:10361000F00D1124EA0DFB1D8489280F311D1C9625
:10362000ED91FC911D97828193818217930708F495
:103630008BC0C901880F991F880F991F820F931F94
:103640001296ED91FC911397E80FF91F0190F0810C
:10365000E02D068CF78DE02D1081489DF001499DED
:10366000F00D589DF00D1124EA0DFB1DE55AFF4F9A
:103670008FEF9FEF91838083CA01489DF001499DA0
:10368000F00D589DF00D1124EA0DFB1D85E8868B89
:10369000842F889DA001899D500D989D500D112467
:1036A0004A0D5B1DDA01FA01248D358DC50165894E
:1036B00054964C9154975E960C91C12CD12C74E089
:1036C000E72E75E0F72E0E94471AC89DF001C99DAC
:1036D000F00DD89DF00D1124EA0DFB1D80E090E067
:1036E000A4E0B5E0808F918FA28FB38FC89DF001C9
:1036F000C99DF00DD89DF00D1124EA0DFB1DE35A74
:10370000FF4F0190F081E02D309719F0C501612F36
:1037100009958BE490E0C89FF001C99FF00DD89FF8
:10372000F00D1124EA0DFB1D808D918DA28DB38DBE
:103730008030E0E09E07E4E0AE07E5E0BE0721F45C
:10374000C5016C2F0E94F818DF91CF911F910F9146
:10375000FF90EF90DF90CF90BF90AF909F908F90B1
:1037600008952F923F924F925F926F927F928F9225
:103770009F92AF92BF92CF92DF92EF92FF920F9300
:103780001F93CF93DF93CDB7DEB72E970FB6F89484
:10379000DEBF0FBECDBF3C011B01DC011A96AD9010
:1037A000BC901B97F501208131811C968D909C90D7
:1037B0001D97D4010D90BC91A02DBB87AA87211520
:1037C000310569F53DC0C7018C0D9D1DD3011296D1
:1037D000ED91FC911397E80FF91F8281823010F46C
:1037E0000C94792F45E050E0E40EF51E0190F08135
:1037F000E02D0684F785E02DD1018D919C91AC01DF
:1038000060E070E080819181A281B3818417950787
:10381000A607B70709F46CC00F5F1F4F0AC08901E4
:10382000EE24FF246901CC0CDD1CCC0CDD1CC20E87
:10383000D31E502E521AEA85FB85E017F10718F6C1
:10384000D50112962D913C911397F401A280B3807B
:1038500021153105D1F58FEF0C949C2FCB01800FF2
:10386000911FD3011296ED91FC911397E80FF91F68
:103870008281843010F40C947B2F808191819B870E
:103880008A876B5F7F4FDC0156968D909C9057978F
:10389000F101808191816C01EE24FF24F40180818B
:1038A0009181A281B3818C159D05AE05BF0551F4B0
:1038B000AA85BB855E96ED91FC915F97B081BA8732
:1038C00012E018C04F5F5F4F0AC0A90160E070E0CE
:1038D0008901000F111F000F111F020F131F542E1B
:1038E000521AA416B50608F0B9CF8FEF0C949C2F8E
:1038F00011E01A86F1018381883081F0C301652DC2
:10390000412F20E030E000E0C12CD12CE12C18E068
:10391000F12E0E94721A8FEF0C949C2FC301652D1B
:10392000412F9E012F5F3F4F0E943E19482F882351
:10393000F9F4898190E02BE430E0829FF001839FCD
:10394000F00D929FF00D1124E60DF71D86891130C0
:1039500019F4843069F402C0853051F4D101149611
:103960008C911497803811F00C949F2A0C94622546
:10397000F1019481892F829586958770833009F4AF
:1039800071C6843038F4813009F420C2823008F0E6
:103990006AC40EC0853011F40C94DF25853010F414
:1039A0000C946225863011F00C947D2F0C949F2A84
:1039B000113009F0FBC0442381F4898190E02BE4AD
:1039C00030E0829FF001839FF00D929FF00D112453
:1039D000E60DF71D8689823089F0C301652D41E02F
:1039E00020E030E000E0B1E2CB2ED12CE12CB8E0B9
:1039F000FB2E0E94721A8FEF0C949C2F8F01055A98
:103A00001F4FD8018D919C911197BFEF8F3F9B075E
:103A100049F10E94053AF801918380839980492DEC
:103A200050E060E070E0C30127EE3AE1A8EDEA2E35
:103A3000A8EBFA2E012D112DAA24BB2465010E94AA
:103A40003C39292D30E04BE450E0249FF001259FC4
:103A5000F00D349FF00D1124E60DF71DE55AFF4FD0
:103A6000918380836981862F90E07BE4E72EF12C9F
:103A70008E9DF0018F9DF00D9E9DF00D1124E60DA1
:103A8000F71DA48CB58C968CD10114962C911497AB
:103A9000478950E0822F82958F7090E081709070FE
:103AA0004817590781F0C301652D41E09501092DA3
:103AB000C12CD12C53E0E52E55E0F52E0E94721A50
:103AC0008FEF0C949C2F269530E02095309544275D
:103AD00037FD4095542F2770307040705070810131
:103AE0000B5F1F4FC3010E94DB17882379F0C301CE
:103AF000652D41E09501092DC12CD12CE12C18E058
:103B0000F12E0E94721A8FEF0C949C2F898190E005
:103B10008E9DF0018F9DF00D9E9DF00D1124E60D00
:103B2000F71D87898295807F80628A831B821C8231
:103B30001D821E821F8218861986C30161E0452DF1
:103B40009E012E5F3F4F0E94B9196981862F90E038
:103B50008E9DF0018F9DF00D9E9DF00D1124E60DC0
:103B6000F71D81E09789911180E0878BF1018481B5
:103B700080FD02C00C947F2FC3010E94AA166B0126
:103B80007C01C301C114D104E104F10449F0652DA5
:103B900041E09501092D0E94721A8FEF0C949C2F21
:103BA00069810E94F81880E00C949C2F442381F4D2
:103BB000898190E02BE430E0829FF001839FF00D3B
:103BC000929FF00D1124E60DF71D8689833089F050
:103BD000C301652D42E020E030E000E0B1E2CB2EF1
:103BE000D12CE12CB8E0FB2E0E94721A8FEF0C94BE
:103BF0009C2F8F01055A1F4FD8018D919C911197D1
:103C0000BFEF8F3F9B0749F10E94053AF80191836E
:103C100080839980492D50E060E070E0C30127EE79
:103C20003AE1A8EDEA2EA8EBFA2E012D112DAA24D7
:103C3000BB2465010E943C39292D30E04BE450E063
:103C4000249FF001259FF00D349FF00D1124E60D07
:103C5000F71DE55AFF4F918380836981862F90E09D
:103C60007BE4A72EB12C8A9DF0018B9DF00D9A9DCF
:103C7000F00D1124E60DF71DE48CF58CC68CD101F6
:103C800014962C911497478950E0822F82958F705B
:103C900090E0817090704817590781F0C301652D3D
:103CA00042E097010C2DC12CD12C53E0E52E55E0BC
:103CB000F52E0E94721A8FEF0C949C2F269530E0FF
:103CC00020953095442737FD4095542F277030704C
:103CD0004070507081010B5F1F4FC3010E94DB17C2
:103CE000882379F0C301652D42E097010C2DC12C8A
:103CF000D12CE12C18E0F12E0E94721A8FEF0C9457
:103D00009C2F898190E08A9DF0018B9DF00D9A9DFA
:103D1000F00D1124E60DF71D21E03789311120E067
:103D2000BBE4CB2ED12C8C9DF0018D9DF00D9C9D84
:103D3000F00D1124E60DF71D278BD10114968C91FF
:103D4000149780FF28C08F01055A1F4FF80180810A
:103D500091810E94053AD80111969C938E93898196
:103D600090E08C9DF0018D9DF00D9C9DF00D112437
:103D7000E60DF71D81E0868BE35AFF4F0190F0813D
:103D8000E02D309711F40C94812FC3016A850995B9
:103D900080E00C949C2F822F90E0A4E0880F991F64
:103DA000AA95E1F780668A831B821C821D821E828F
:103DB0001F8218861986C30162E0452D9E012E5F81
:103DC0003F4F0E94B91980E00C949C2F113009F0EC
:103DD000F5C0F101968180E0A580BB24A82AB92A0C
:103DE0009780C301442379F4652D41E09501092DA5
:103DF000F1E2CF2ED12CE12CF8E0FF2E0E94721AB6
:103E00008FEF0C949C2F61E0AE014F5F5F4F0E94DB
:103E10003419882381F0C301652D41E09501092DF6
:103E2000E1E2CE2ED12CE12CE8E0FE2E0E94721AA7
:103E30008FEF0C949C2FC3016981452D9501092DAD
:103E400072E0E72E0E944818D10114968C911497C5
:103E5000982F969590FF51C0282F26952695237070
:103E600084E090E0821B91096C01EE24D7FCE09481
:103E7000FE2C6981862F90E02BE430E0829FF001D8
:103E8000839FF00D929FF00D1124E60DF71DC78E54
:103E9000D0A2E1A2F2A28101085F1F4FC301A701D6
:103EA00096010E94DB17882379F0C301652D41E05C
:103EB0009501092DC12CD12CE12C58E0F52E0E9442
:103EC000721A8FEF0C949C2FC30169810E94AA166D
:103ED0006B017C01C301C114D104E104F10449F078
:103EE000652D41E09501092D0E94721A8FEF0C9407
:103EF0009C2F69810E94F8184DC080FF4BC0F101D2
:103F0000418550E060E070E0762F652F542F442704
:103F1000828590E0A0E0B0E0DC0199278827480F77
:103F2000591F6A1F7B1F8085480F511D611D711D20
:103F3000838590E0A0E0B0E0B82FAA2799278827D2
:103F4000480F591F6A1F7B1F898141325105610546
:103F5000710588F490E02BE430E0829FF001839FAC
:103F6000F00D929FF00D1124E60DF71D478F50A321
:103F700061A372A30FC0C301652D41E09501092D16
:103F8000C12CD12CE12C18E0F12E0E94721A8FEF77
:103F90000C949C2F80E68A83AB82BC829D821E8219
:103FA0001F8218861986C30161E0452D9E012E5F90
:103FB0003F4F0E94B91980E00C949C2F442381F458
:103FC000898190E02BE430E0829FF001839FF00D27
:103FD000929FF00D1124E60DF71D8689823089F03D
:103FE000C301652D42E020E030E000E0B1E2CB2EDD
:103FF000D12CE12CB8E0FB2E0E94721A8FEF0C94AA
:104000009C2F8F01055A1F4FD8018D919C911197BC
:10401000BFEF8F3F9B0749F10E94053AF80191835A
:1040200080839980492D50E060E070E0C30127EE65
:104030003AE1A8EDEA2EA8EBFA2E012D112DAA24C3
:10404000BB2465010E943C39292D30E04BE450E04F
:10405000249FF001259FF00D349FF00D1124E60DF3
:10406000F71DE55AFF4F918380832981A22EBB243F
:104070008BE490E0A89EF001A99EF00DB89EF00D93
:104080001124E60DF71D848D958D9D878C87968C68
:104090003789432F50E0D10114968C911497829563
:1040A0008F7090E0817090704817590789F0C301B4
:1040B000652D42E02C853D85092DC12CD12C13E0C6
:1040C000E12E15E0F12E0E94721A8FEF0C949C2FB6
:1040D000478D50A161A172A141155105610571057E
:1040E00059F083A194A1A5A1B6A16A017B01C81AC8
:1040F000D90AEA0AFB0A99F5BBE4CB2ED12CAC9C79
:104100008001AD9C100DBC9C100D1124060D171DD7
:10411000055A1F4FF801808191810E94053AD8010C
:1041200011969C938E93898190E08C9DF0018D9DDA
:10413000F00D9C9DF00D1124E60DF71D81E0868B9E
:10414000E35AFF4F0190F081E02D309711F40C9469
:10415000832FC3016A85099580E00C949C2F41E070
:10416000B8E0CB16D104E104F10478F1311140E05C
:104170008BE490E0A89EF001A99EF00DB89EF00D92
:104180001124E60DF71D478B4295407F4A83C301FA
:10419000622F27E030E040E050E08E010D5F1F4FBE
:1041A0000E946217882309F453C0C301652D42E0C1
:1041B0002C853D85092DC12CD12CE12CA8E0FA2EAF
:1041C0000E94721A8FEF0C949C2F311140E08BE407
:1041D00090E0A89EF001A99EF00DB89EF00D11246C
:1041E000E60DF71D478B4295407F416087E08C19B3
:1041F000880F482B4A83C301622FA70196018E01C5
:104200000D5F1F4F0E9462178823B9F0C301652D0F
:1042100042E02C853D85092DC12CD12CE12CF8E004
:10422000FF2E0E94721A8FEF0C949C2FE2E0F0E0B8
:10423000EC0FFD1FEC0DFD1D10820894C11CD11C5C
:10424000E11CF11CE8E0CE16D104E104F10471F7A1
:10425000C30162E0452D9E012E5F3F4F0E94B919B8
:1042600080E00C949C2F113009F0D0C0968180E042
:10427000A580BB24A82AB92A9780C301442379F4D6
:10428000652D41E09501092DE1E2CE2ED12CE12CE6
:10429000E8E0FE2E0E94721A8FEF0C949C2F61E0D2
:1042A000AE014F5F5F4F0E943419882381F0C30134
:1042B000652D41E09501092D71E2C72ED12CE12C2D
:1042C00078E0F72E0E94721A8FEF0C949C2FC30196
:1042D0006981452D9501092D53E0E52E0E9448186E
:1042E000C30169810E9401176B017C016115710591
:1042F0008105910549F0C301652D41E095010E94BA
:10430000721A8FEF0C949C2F6981862F90E02BE41A
:1043100030E0829FF001839FF00D929FF00D1124F9
:10432000E60DF71DC78CD0A0E1A0F2A0C114D10406
:10433000E104F10411F183A194A1A5A1B6A1C81AC9
:10434000D90AEA0AFB0AB5E0CB16D104E104F1046C
:10435000B8F081E48A83AB82BC829D82CE82DF8208
:10436000E886F986C30161E0452D9E012E5F3F4F2F
:104370000E94B91980E00C949C2FCC24DD24760196
:1043800084E08C19880F880F83648A83AB82BC8297
:104390009D82C301A70196018E010A5F1F4F0E94F3
:1043A0006217882379F0C301652D41E09501092D3D
:1043B000C12CD12CE12C18E0F12E0E94721A8FEF43
:1043C0000C949C2FD701C6010496A11DB11D0AC0F3
:1043D000E2E0F0E0EC0FFD1FE80FF91F10820196FC
:1043E000A11DB11D88309105A105B10589F7C30153
:1043F00061E0452D9E012E5F3F4F0E94B919C30118
:1044000069810E94F81880E00C949C2F442381F469
:10441000898190E02BE430E0829FF001839FF00DD2
:10442000929FF00D1124E60DF71D8689833089F0E7
:10443000C301652D42E020E030E000E0B1E2CB2E88
:10444000D12CE12CB8E0FB2E0E94721A8FEF0C9455
:104450009C2F8F01055A1F4FD8018D919C91119768
:10446000BFEF8F3F9B0749F10E94053AF801918306
:1044700080839980492D50E060E070E0C30127EE11
:104480003AE1A8EDEA2EA8EBFA2E012D112DAA246F
:10449000BB2465010E943C39292D30E04BE450E0FB
:1044A000249FF001259FF00D349FF00D1124E60D9F
:1044B000F71DE55AFF4F918380836981862F90E035
:1044C0007BE4E72EF12C8E9DF0018F9DF00D9E9DDB
:1044D000F00D1124E60DF71D848D958D9D878C8739
:1044E000C68CD10114968C911497982F969590FFB5
:1044F0005DC0282F26952695237084E090E0821BCE
:1045000091094C01AA2497FCA094BA2C8101085F60
:104510001F4FC301A50194010E94DB17882381F07E
:10452000C301652D42E02C853D850C2DC12CD12C7D
:10453000E12C58E0F52E0E94721A8FEF0C949C2FFC
:10454000898190E08E9D80018F9D100D9E9D100DA4
:104550001124060D171D055A1F4FF8018081918106
:104560000E94053AD80111969C938E93898190E020
:104570008E9DF0018F9DF00D9E9DF00D1124E60D96
:10458000F71D878E90A2A1A2B2A281E0868BE35A8A
:10459000FF4F0190F081E02D309711F40C94852F9E
:1045A000C3016A85099580E00C949C2F80FF46C06A
:1045B000D10119964C91199750E060E070E0762F88
:1045C000652F542F44271A968C9190E0A0E0B0E01C
:1045D000DC0199278827480F591F6A1F7B1FD101CB
:1045E00018968C911897480F511D611D711D1B96CF
:1045F0008C9190E0A0E0B0E0B82FAA2799278827F7
:10460000480F591F6A1F7B1F413251056105710513
:1046100028F4478F50A361A372A310C0C301652D76
:1046200042E02C853D850C2DC12CD12CE12C18E0CD
:10463000F12E0E94721A8FEF0C949C2F80E68A83D1
:104640001B821C821D821E821F8218861986C3014E
:1046500062E0452D9E012E5F3F4F0E94B91980E018
:104660000C949C2F113009F01DC1442381F48981E1
:1046700090E02BE430E0829FF001839FF00D929F49
:10468000F00D1124E60DF71D8689833089F0C301F2
:10469000652D41E020E030E000E0B1E2CB2ED12CEE
:1046A000E12CB8E0FB2E0E94721A8FEF0C949C2F25
:1046B0008F01055A1F4FD8018D919C911197BFEF23
:1046C0008F3F9B0749F10E94053AF801918380834F
:1046D0009980492D50E060E070E0C30127EE3AE197
:1046E000A8EDEA2EA8EBFA2E012D112DAA24BB2449
:1046F00065010E943C39292D30E04BE450E0249FB5
:10470000F001259FF00D349FF00D1124E60DF71DEB
:10471000E55AFF4F918380836981862F90E0ABE457
:10472000B0E08A9FF0018B9FF00D9A9FF00D11244D
:10473000E60DF71DE48CF58CC68C2789422F50E0DE
:10474000D10114968C91149782958F7090E08170AE
:1047500090704817590781F0C301652D41E097011A
:104760000C2DC12CD12CE3E0EE2EE5E0FE2E0E94B4
:10477000721A8FEF0C949C2F878C90A0A1A0B2A0EE
:104780002295207F81149104A104B10409F447C04B
:1047900083A194A1A5A1B6A1881A990AAA0ABB0A65
:1047A000B8E08B169104A104B104E0F12A83C3019F
:1047B00027E030E040E050E08E010D5F1F4F0E9487
:1047C0006217882379F0C301652D41E097010C2D14
:1047D000C12CD12CE12C78E0F72E0E94721A8FEFB9
:1047E0000C949C2F898190E02BE430E0829FF001B3
:1047F000839FF00D929FF00D1124E60DF71D81E0CF
:104800009789911180E0878BC30161E0452D9E015E
:104810002E5F3F4F0E94B91980E00C949C2F882492
:1048200099245401216087E08819880F282B2A8356
:10483000C301A50194018E010D5F1F4F0E946217F5
:104840008823B1F0C301652D41E097010C2DC12CE7
:10485000D12CE12C58E0F52E0E94721A8FEF0C94A7
:104860009C2FE2E0F0E0EC0FFD1FE80DF91D108237
:104870000894811C911CA11CB11C38E08316910482
:10488000A104B10471F7C30161E0452D9E012E5FC3
:104890003F4F0E94B919C30169810E94F81880E056
:1048A0000C949C2F442389F4898190E01BE4212EF1
:1048B000312C829DF001839DF00D929DF00D11240D
:1048C000E60DF71D8689823089F0C301652D42E02F
:1048D00020E030E000E0B1E2CB2ED12CE12CB8E0BA
:1048E000FB2E0E94721A8FEF0C949C2F8F01055A99
:1048F0001F4FD8018D919C911197BFEF8F3F9B0760
:1049000039F10E94053AF801918380839980492DFD
:1049100050E060E070E0C30127EE3AE1A8EDEA2E36
:10492000A8EBFA2E012D112DAA24BB2465010E94AB
:104930003C39292D30E0229DF001239DF00D329D60
:10494000F00D1124E60DF71DE55AFF4F918380838A
:104950002981222E33248BE490E0289EF001299EA9
:10496000F00D389EF00D1124E60DF71DA48CB58CCA
:10497000968C878D90A1A1A1B2A10097A105B10548
:1049800059F043A154A165A176A16C017D01C41A1F
:10499000D50AE60AF70A91F5EBE4CE2ED12C2C9C31
:1049A00080012D9C100D3C9C100D1124060D171D2F
:1049B000055A1F4FD8018D919C910E94053AF8012C
:1049C00091838083898190E08C9DF0018D9DF00D15
:1049D0009C9DF00D1124E60DF71D81E0868BE35AB6
:1049E000FF4F0190F081E02D309711F40C94872F48
:1049F000C3016A85099580E00C949C2F8789829574
:104A0000807FF8E0CF16D104E104F104F0F08A834E
:104A1000C301622F27E030E040E050E08E010D5FDF
:104A20001F4F0E946217882309F441C0C301652DFE
:104A300042E09501092DC12CD12CE12C78E0F72E14
:104A40000E94721A8FEF0C949C2F816097E09C1942
:104A5000990F892B8A83C301622FA70196018E01CA
:104A60000D5F1F4F0E9462178823B1F0C301652DAF
:104A700042E09501092DC12CD12CE12C58E0F52EF6
:104A80000E94721A8FEF0C949C2FE2E0F0E0EC0F82
:104A9000FD1FEC0DFD1D10820894C11CD11CE11CF2
:104AA000F11C28E0C216D104E104F10471F7C3013E
:104AB00062E0452D9E012E5F3F4F0E94B91980E0B4
:104AC0000C949C2FD1011896EC9018971996AC90E5
:104AD00019971A96FC901A971B969C901B97113069
:104AE00059F4442311F00C94892FC30169810E9469
:104AF000F81880E00C949C2F442311F00C948B2F19
:104B0000898190E0ABE4CA2ED12C8C9D80018D9DD3
:104B1000100D9C9D100D1124060D171D055A1F4FD9
:104B2000F801808191810E94053AD8018D939C9370
:104B3000898190E08C9DF0018D9DF00D9C9DF00D84
:104B40001124E60DF71D80E8868B8A2D90E0A0E009
:104B5000B0E0BA2FA92F982F88274F2D50E060E0A2
:104B600070E0BA0155274427842B952BA62BB72B31
:104B70004E2D50E060E070E0842B952BA62BB72BD8
:104B8000492D50E060E070E0742F662755274427D8
:104B9000842B952BA62BB72B808F918FA28FB38F51
:104BA000E35AFF4F0190F081E02D309711F40C94FF
:104BB0008D2FC3016A85099580E00C949C2FF3E04A
:104BC0008F2E8922113009F09EC2882009F0B3C0CF
:104BD000F101968180E0A580BB24A82AB92A97809C
:104BE000C301442379F4652D41E09501092DE1E2EB
:104BF000CE2ED12CE12CE8E0FE2E0E94721A8FEF0F
:104C00000C949C2F61E0AE014F5F5F4F0E943419FE
:104C1000882381F0C301652D41E09501092D71E2E2
:104C2000C72ED12CE12C78E0F72E0E94721A8FEF5C
:104C30000C949C2FC3016981452D9501092D55E0E8
:104C4000E52E0E9448186981862F90E00BE410E061
:104C5000809F9001819F300D909F300D1124260D73
:104C6000371DF901E95BFF4FD10114968C91149720
:104C7000869586958170808318968C91F901E85B02
:104C8000FF4F8083C3010E9401176B017C016115F6
:104C900071058105910551F0C301652D41E0950134
:104CA000092D0E94721A8FEF0C949C2F298130E0FD
:104CB000209FF001219FF00D309FF00D1124E60D93
:104CC000F71D478D50A161A172A1411551056105E4
:104CD000710549F083A194A1A5A1B6A1481B590B68
:104CE0006A0B7B0B03C040E050E0BA018BE490E01C
:104CF000289FF001299FF00D389FF00D1124E60D3B
:104D0000F71DE65BFF4F408351836283738382EC20
:104D10008A83AB82BC829D824E835F83688779875A
:104D2000C30161E0452D9E012E5F3F4F0E94B919DE
:104D300080E00C949C2FB1E08B1651F5442389F44C
:104D40006981862F90E02BE430E0829FF001839F01
:104D5000F00D929FF00D1124E60DF71D8689853028
:104D600089F0C301652D41E020E030E000E011E270
:104D7000C12ED12CE12C18E0F12E0E94721A8FEF77
:104D80000C949C2FC3010E94F81880E00C949C2F77
:104D9000442381F4898190E02BE430E0829FF0018C
:104DA000839FF00D929FF00D1124E60DF71D86896B
:104DB000853089F0C301652D41E020E030E000E05E
:104DC000B1E2CB2ED12CE12CB8E0FB2E0E94721A5E
:104DD0008FEF0C949C2F8F01055A1F4FD8018D9196
:104DE0009C911197BFEF8F3F9B0749F10E94053AB5
:104DF000F801918380839980492D50E060E070E054
:104E0000C30127EE3AE1A8EDEA2EA8EBFA2E012D18
:104E1000112DAA24BB2465010E943C39292D30E0C4
:104E20004BE450E0249FF001259FF00D349FF00DDE
:104E30001124E60DF71DE55AFF4F91838083C98049
:104E4000DD248BE490E0C89ED001C99EB00DD89EB1
:104E5000B00D1124A60DB71D5C968D919C915D97A8
:104E60009B878A875E96FC905E9792E0891609F090
:104E70008BC0F1018681FD01E85BFF4F8083F1016A
:104E800015811F775F964D915D916D917C91929701
:104E9000411551056105710559F093968D919D91CC
:104EA0000D90BC91A02D481759076A077B0759F54B
:104EB0008BE490E0C89E9001C99E300DD89E300DC5
:104EC0001124260D371DF901E15BFF4F8081181772
:104ED000D1F4205B3F4FD9018C91880F880F816CF2
:104EE0008A831B821C821D821E821F82188619865D
:104EF000C30161E0452D9E012E5F3F4F0E94B9190D
:104F000080E00C949C2F8BE490E0C89ED001C99E59
:104F1000B00DD89EB00D1124A60DB71DFD01E25BAA
:104F2000FF4F4081212F30E0C90113E0880F991F06
:104F30001A95E1F7821B930B840F911DAC01662734
:104F400057FD6095762F93964D935D936D937C936B
:104F500096975F968D919D910D90BC91A02D841791
:104F60009507A607B70780F4C301652D41E020E04F
:104F700030E000E071E2C72ED12CE12C78E0F72E72
:104F80000E94721A8FEFD8C78BE490E0C89EF001A0
:104F9000C99EF00DD89EF00D1124E60DF71DDF011E
:104FA000A25BBF4F83A18C93CC24C3946BE4262EC9
:104FB000312C94C0FD01E15BFF4FC0825F960D91E3
:104FC0001D912D913C9192970115110521053105F7
:104FD000C1F193968D919D910D90BC91A02D4801AA
:104FE0005901881A990AAA0ABB0AB8E08B169104DB
:104FF000A104B10448F1CA82C30127E030E040E0D7
:1050000050E08E010D5F1F4F0E946217882379F0D8
:10501000C301652D41E02A853B850F2DC12CD12C84
:10502000E12C58E0F52E0E94721A8FEF85C7C3015C
:1050300061E0452D9E012E5F3F4F0E94B919C39438
:105040004DC08824992454018C2D80688A83C30123
:10505000A50194018E010D5F1F4F0E9462178823E6
:1050600079F0C301652D41E02A853B850F2DC12CC8
:10507000D12CE12C18E0F12E0E94721A8FEF5CC740
:10508000D501C40107C0E2E0F0E0EC0FFD1FE80F1E
:10509000F91F10820196A11DB11D88309105A1054F
:1050A000B10589F7C30161E0452D9E012E5F3F4F99
:1050B0000E94B919298130E08BE490E0289FF0012B
:1050C000299FF00D389FF00D1124E60DF71DE05BD0
:1050D000FF4F87E08819808380E02EC76981862F83
:1050E00090E0829DD001839DB00D929DB00D112462
:1050F000A60DB71DFD01E85BFF4F80818C1508F000
:1051000059CF80E019C7882021F0E2E08E1609F01F
:10511000D2C1442381F4898190E02BE430E0829F66
:10512000F001839FF00D929FF00D1124E60DF71D05
:105130008689843081F0C301652D42E020E030E0B3
:1051400000E0B1E2CB2ED12CE12CB8E0FB2E0E9486
:10515000721A8FEFF1C68F01055A1F4FD8018D913A
:105160009C911197BFEF8F3F9B0749F10E94053A31
:10517000F801918380839980492D50E060E070E0D0
:10518000C30127EE3AE1A8EDEA2EA8EBFA2E012D95
:10519000112DAA24BB2465010E943C39292D30E041
:1051A0004BE450E0249FF001259FF00D349FF00D5B
:1051B0001124E60DF71DE55AFF4F91838083898105
:1051C000882029F590E02BE430E0829FD001839F76
:1051D000B00D929FB00D1124A60DB71D5C968D9158
:1051E0009C915D979D878C875E964C905E979D0104
:1051F000295B3F4FF1018481869586958170F90185
:105200008083F1018085A85BBF4F8C9393C0E82E0B
:10521000FF24D10116962C918BE490E0E89ED001FA
:10522000E99EB00DF89EB00D1124A60DB71DFD012D
:10523000E85BFF4F2083F10115811F775F964D9149
:105240005D916D917C9192974115510561057105B4
:1052500059F093968D919D910D90BC91A02D48177A
:1052600059076A077B0751F58BE490E0E89E9001AF
:10527000E99E300DF89E300D1124260D371DF901E1
:10528000E15BFF4F80811817C9F4205B3F4FD901C4
:105290008C91880F880F816C8A831B821C821D82EF
:1052A0001E821F8218861986C30162E0452D9E0169
:1052B0002E5F3F4F0E94B91980E03EC68BE490E01C
:1052C000E89EF001E99EF00DF89EF00D1124E60D28
:1052D000F71DDF01A25BBF4F4C91212F30E0C901C8
:1052E00063E0880F991F6A95E1F7821B930B840F87
:1052F000911DAA2797FDA095BA2F83A394A3A5A3D8
:10530000B6A3478D50A161A172A1481759076A073A
:105310007B0780F4C301652D42E020E030E000E02F
:1053200051E2C52ED12CE12C58E0F52E0E94721AC4
:105330008FEF02C6898190E02BE430E0829FF0017C
:10534000839FF00D929FF00D1124E60DF71DDF01F4
:10535000A25BBF4F83A18C93CC24C3940BE4E02EBB
:10536000F12C94C0FD01E15BFF4FC0825F960D916F
:105370001D912D913C919297011511052105310543
:10538000C1F193968D919D910D90BC91A02D4801F6
:105390005901881A990AAA0ABB0AB8E08B16910427
:1053A000A104B10448F1CA82C30127E030E040E023
:1053B00050E08E010D5F1F4F0E946217882379F025
:1053C000C301652D42E02C853D85042DC12CD12CD7
:1053D000E12C18E0F12E0E94721A8FEFADC5C301C7
:1053E00062E0452D9E012E5F3F4F0E94B919C39484
:1053F0004DC08824992454018C2D80688A83C30170
:10540000A50194018E010D5F1F4F0E946217882332
:1054100079F0C301652D42E02C853D85042DC12C1A
:10542000D12CE12CB8E0FB2E0E94721A8FEF84C5BC
:10543000D501C40107C0E2E0F0E0EC0FFD1FE80F6A
:10544000F91F10820196A11DB11D88309105A1059B
:10545000B10589F7C30162E0452D9E012E5F3F4FE4
:105460000E94B919298130E08BE490E0289FF00177
:10547000299FF00D389FF00D1124E60DF71DE05B1C
:10548000FF4F87E08819808380E056C56981862FA9
:1054900090E08E9DD0018F9DB00D9E9DB00D11248A
:1054A000A60DB71DFD01E85BFF4F80818C1508F04C
:1054B00059CF80E041C5E1E08E1689F5898190E001
:1054C000ABE4CA2ED12C8C9D80018D9D100D9C9D2E
:1054D000100D1124060D171D055A1F4FD8018D916F
:1054E0009C910E94053AF80191838083898190E024
:1054F0008C9DF0018D9DF00D9C9DF00D1124E60D0D
:10550000F71D868AE35AFF4F0190F081E02D309716
:1055100009F405C5C3016A85099580E00DC5C3017D
:10552000652D42E020E030E000E0F1E2CF2ED12C0A
:10553000E12CF8E0FF2E0E94721A8FEFFDC41130AB
:1055400009F0AEC2442309F49CC0D10114968C9199
:10555000149780FF10C0C301652D41E020E030E0CA
:1055600000E0E1E2CE2ED12CE12CE8E0FE2E0E94FC
:10557000721A8FEFE1C4F101968180E0A580BB240F
:10558000A82AB92AC780C30161E0AE014F5F5F4F0F
:105590000E943419882379F0C301652D41E09501FB
:1055A0000C2D71E2C72ED12CE12C78E0F72E0E9451
:1055B000721A8FEFC1C4C3016981452D95010C2D6D
:1055C00054E0E52E0E944818898190E02BE430E0F9
:1055D000829FA001839F500D929F500D1124460D74
:1055E000571DFA01EF5AFF4F1083FA01E95BFF4F95
:1055F000D10114968C91149786958695817080833D
:1056000014968C91149781FF28C0465B5F4F1B96C0
:105610008C9190E0A0E0B0E0BA2FA92F982F8827B6
:10562000F1012285820F911DA11DB11DBA2FA92F55
:10563000982F88272185820F911DA11DB11DBA2F9A
:10564000A92F982F88272085820F911DA11DB11D9C
:10565000FA0180839183A283B38380EA8A83AB8239
:10566000BC82CD8280E18E83198618861F82C30199
:1056700061E0452D9E012E5F3F4F0E94B91980E0E9
:105680005BC4898190E02BE430E0829F8001839F9E
:10569000100D929F100D1124060D171DF801EF5AE1
:1056A000FF4F8081813009F009C1055A1F4FD80191
:1056B0008D919C911197BFEF8F3F9B0749F10E94FD
:1056C000053AF801918380839980492D50E060E08C
:1056D00070E0C30127EE3AE1A8EDEA2EA8EBFA2E1E
:1056E000012D112DAA24BB2465010E943C39292DCE
:1056F00030E04BE450E0249FF001259FF00D349FF3
:10570000F00D1124E60DF71DE55AFF4F91838083BC
:10571000D10114968C911497782F7F776981472F48
:1057200050E087FF58C0E62EFF248BE490E0E89E0F
:105730009001E99E300DF89E300D1124F301E20F27
:10574000F31FDF01A15BBF4F8C9190E001964817DA
:10575000590789F4EF5AFF4F82E080837C93F90167
:10576000EE5AFF4FE60DF71DD101149688E00D901B
:1057700001928150E1F782EA8A830BE410E0E09E17
:10578000F001E19EF00DF09EF00D1124E60DF71DE5
:10579000E15BFF4F80818B8380E18C8319861886C3
:1057A0001F821E821D82C30161E0452D9E012E5F76
:1057B0003F4F0E94B919898190E0809FF001819F3D
:1057C000F00D909FF00D1124E60DF71DE15BFF4FEA
:1057D000108280E0B1C3862F90E00BE4E02EF12C24
:1057E0008E9DF0018F9DF00D9E9DF00D1124E60D14
:1057F000F71DE15BFF4F808190E001964817590744
:1058000049F5708381010B5F1F4FC30127E030E032
:1058100040E050E07E870E94DB177E858823D1F030
:10582000898190E08E9DF0018F9DF00D9E9DF00D81
:105830001124E60DF71D248D358DC301652D41E042
:10584000068DC12CD12CE12C18E0F12E0E94721A89
:105850008FEF72C3703109F064C382EA8A83898151
:1058600090E00BE410E0809FF001819FF00D909F8D
:10587000F00D1124E60DF71DE15BFF4F80818B8356
:105880007C83198618861F821E821D82C30161E0F7
:10589000452D9E012E5F3F4F0E94B919898190E0EE
:1058A000809FF001819FF00D909FF00D1124E60D77
:1058B000F71DE15BFF4F108280E03EC3823009F0AC
:1058C00032C3F101848180FD10C0C301652D41E028
:1058D00020E030E000E0B1E2CB2ED12CE12CB8E0AA
:1058E000FB2E0E94721A8FEF27C3055A1F4FD80153
:1058F0008D919C911197BFEF8F3F9B0749F10E94BB
:10590000053AF801918380839980492D50E060E049
:1059100070E0C30127EE3AE1A8EDEA2EA8EBFA2EDB
:10592000012D112DAA24BB2465010E943C39292D8B
:1059300030E04BE450E0249FF001259FF00D349FB0
:10594000F00D1124E60DF71DE55AFF4F918380837A
:105950006981D10114968C9186958695877027E090
:1059600030E0281B3109442737FD4095542F862FFE
:1059700090E07BE4C72ED12C8C9D80018D9D100D75
:105980009C9D100D11240D5A1F4F060D171DC301AC
:105990000E94DB1799818823D1F0892F90E08C9D9C
:1059A000F0018D9DF00D9C9DF00D1124E60DF71D6D
:1059B000248D358DC301652D41E0068DC12CD12C80
:1059C000E12C58E0F52E0E94721A8FEFB5C2892F94
:1059D00090E08C9DF0018D9DF00D9C9DF00D1124AB
:1059E000E60DF71DDF01A65BBF4F8D919D910D90D8
:1059F000BC91A02D0097A105B105C9F043A154A108
:105A000065A176A184179507A607B70781F0248DB5
:105A1000358DC301652D41E0068D11E2C12ED12CDB
:105A2000E12C18E0F12E0E94721A8FEF85C281EAF4
:105A30008A831B821C821D821E821F821886198601
:105A4000C30161E0452D9E012E5F3F4F0E94B919B1
:105A5000C30169810E94AA166B017C016115710561
:105A600081059105B9F0298130E08BE490E0289F11
:105A7000F001299FF00D389FF00D1124E60DF71D60
:105A8000248D358DC301652D41E0068D0E94721A6B
:105A90008FEF52C2C30169810E94F81880E04CC2A6
:105AA000442381F0C301652D42E020E030E000E0B6
:105AB000B1E2CB2ED12CE12CB8E0FB2E0E94721A61
:105AC0008FEF3AC2898190E0EBE4F0E08E9F800195
:105AD0008F9F100D9E9F100D1124060D171D055A46
